:020000000400FA
:020001000400F9
:020002000400F8
:020003000400F7
:020004000400F6
:020005000401F4
:020006000401F3
:020007000401F2
:020008000401F1
:020009000402EF
:02000A000402EE
:02000B000402ED
:02000C000402EC
:02000D000403EA
:02000E000403E9
:02000F000403E8
:020010000403E7
:020011000404E5
:020012000404E4
:020013000404E3
:020014000404E2
:020015000405E0
:020016000405DF
:020017000405DE
:020018000405DD
:020019000406DB
:02001A000406DA
:02001B000406D9
:02001C000406D8
:02001D000407D6
:02001E000407D5
:02001F000407D4
:020020000407D3
:020021000408D1
:020022000408D0
:020023000408CF
:020024000408CE
:020025000409CC
:020026000409CB
:020027000409CA
:020028000409C9
:02002900040AC7
:02002A00040AC6
:02002B00040AC5
:02002C00040AC4
:02002D00040BC2
:02002E00040BC1
:02002F00040BC0
:02003000040BBF
:02003100040CBD
:02003200040CBC
:02003300040CBB
:02003400040CBA
:02003500040DB8
:02003600040DB7
:02003700040DB6
:02003800040DB5
:02003900040EB3
:02003A00040EB2
:02003B00040EB1
:02003C00040EB0
:02003D00040FAE
:02003E00040FAD
:02003F00040FAC
:02004000040FAB
:020041000410A9
:020042000410A8
:020043000410A7
:020044000410A6
:020045000411A4
:020046000411A3
:020047000411A2
:020048000411A1
:0200490004129F
:02004A0004129E
:02004B0004129D
:02004C0004129C
:02004D0004139A
:02004E00041399
:02004F00041398
:02005000041397
:02005100041495
:02005200041494
:02005300041493
:02005400041492
:02005500041590
:0200560004158F
:0200570004158E
:0200580004158D
:0200590004168B
:02005A0004168A
:02005B00041689
:02005C00041688
:02005D00041786
:02005E00041785
:02005F00041784
:02006000041783
:02006100041881
:02006200041880
:0200630004187F
:0200640004187E
:0200650004197C
:0200660004197B
:0200670004197A
:02006800041979
:02006900041A77
:02006A00041A76
:02006B00041A75
:02006C00041A74
:02006D00041B72
:02006E00041B71
:02006F00041B70
:02007000041B6F
:02007100041C6D
:02007200041C6C
:02007300041C6B
:02007400041C6A
:02007500041D68
:02007600041D67
:02007700041D66
:02007800041D65
:02007900041E63
:02007A00041E62
:02007B00041E61
:02007C00041E60
:02007D00041F5E
:02007E00041F5D
:02007F00041F5C
:02008000041F5B
:02008100042059
:02008200042058
:02008300042057
:02008400042056
:02008500042154
:02008600042153
:02008700042152
:02008800042151
:0200890004224F
:02008A0004224E
:02008B0004224D
:02008C0004224C
:02008D0004234A
:02008E00042349
:02008F00042348
:02009000042347
:02009100042445
:02009200042444
:02009300042443
:02009400042442
:02009500042540
:0200960004253F
:0200970004253E
:0200980004253D
:0200990004263B
:02009A0004263A
:02009B00042639
:02009C00042638
:02009D00042736
:02009E00042735
:02009F00042734
:0200A000042733
:0200A100042831
:0200A200042830
:0200A30004282F
:0200A40004282E
:0200A50004292C
:0200A60004292B
:0200A70004292A
:0200A800042929
:0200A900042A27
:0200AA00042A26
:0200AB00042A25
:0200AC00042A24
:0200AD00042B22
:0200AE00042B21
:0200AF00042B20
:0200B000042B1F
:0200B100042C1D
:0200B200042C1C
:0200B300042C1B
:0200B400042C1A
:0200B500042D18
:0200B600042D17
:0200B700042D16
:0200B800042D15
:0200B900042E13
:0200BA00042E12
:0200BB00042E11
:0200BC00042E10
:0200BD00042F0E
:0200BE00042F0D
:0200BF00042F0C
:0200C000042F0B
:0200C100043009
:0200C200043008
:0200C300043007
:0200C400043006
:0200C500043104
:0200C600043103
:0200C700043102
:0200C800043101
:0200C9000432FF
:0200CA000432FE
:0200CB000432FD
:0200CC000432FC
:0200CD000433FA
:0200CE000433F9
:0200CF000433F8
:0200D0000433F7
:0200D1000434F5
:0200D2000434F4
:0200D3000434F3
:0200D4000434F2
:0200D5000435F0
:0200D6000435EF
:0200D7000435EE
:0200D8000435ED
:0200D9000436EB
:0200DA000436EA
:0200DB000436E9
:0200DC000436E8
:0200DD000437E6
:0200DE000437E5
:0200DF000437E4
:0200E0000437E3
:0200E1000438E1
:0200E2000438E0
:0200E3000438DF
:0200E4000438DE
:0200E5000439DC
:0200E6000439DB
:0200E7000439DA
:0200E8000439D9
:0200E900043AD7
:0200EA00043AD6
:0200EB00043AD5
:0200EC00043AD4
:0200ED00043BD2
:0200EE00043BD1
:0200EF00043BD0
:0200F000043BCF
:0200F100043CCD
:0200F200043CCC
:0200F300043CCB
:0200F400043CCA
:0200F500043DC8
:0200F600043DC7
:0200F700043DC6
:0200F800043DC5
:0200F900043EC3
:0200FA00043EC2
:0200FB00043EC1
:0200FC00043EC0
:0200FD00043FBE
:0200FE00043FBD
:0200FF00043FBC
:02010000043FBA
:020101000440B8
:020102000440B7
:020103000440B6
:020104000440B5
:020105000441B3
:020106000441B2
:020107000441B1
:020108000441B0
:020109000442AE
:02010A000442AD
:02010B000442AC
:02010C000442AB
:02010D000443A9
:02010E000443A8
:02010F000443A7
:020110000443A6
:020111000444A4
:020112000444A3
:020113000444A2
:020114000444A1
:0201150004459F
:0201160004459E
:0201170004459D
:0201180004459C
:0201190004469A
:02011A00044699
:02011B00044698
:02011C00044697
:02011D00044795
:02011E00044794
:02011F00044793
:02012000044792
:02012100044890
:0201220004488F
:0201230004488E
:0201240004488D
:0201250004498B
:0201260004498A
:02012700044989
:02012800044988
:02012900044A86
:02012A00044A85
:02012B00044A84
:02012C00044A83
:02012D00044B81
:02012E00044B80
:02012F00044B7F
:02013000044B7E
:02013100044C7C
:02013200044C7B
:02013300044C7A
:02013400044C79
:02013500044D77
:02013600044D76
:02013700044D75
:02013800044D74
:02013900044E72
:02013A00044E71
:02013B00044E70
:02013C00044E6F
:02013D00044F6D
:02013E00044F6C
:02013F00044F6B
:02014000044F6A
:02014100045068
:02014200045067
:02014300045066
:02014400045065
:02014500045163
:02014600045162
:02014700045161
:02014800045160
:0201490004525E
:02014A0004525D
:02014B0004525C
:02014C0004525B
:02014D00045359
:02014E00045358
:02014F00045357
:02015000045356
:02015100045454
:02015200045453
:02015300045452
:02015400045451
:0201550004554F
:0201560004554E
:0201570004554D
:0201580004554C
:0201590004564A
:02015A00045649
:02015B00045648
:02015C00045647
:02015D00045745
:02015E00045744
:02015F00045743
:02016000045742
:02016100045840
:0201620004583F
:0201630004583E
:0201640004583D
:0201650004593B
:0201660004593A
:02016700045939
:02016800045938
:02016900045A36
:02016A00045A35
:02016B00045A34
:02016C00045A33
:02016D00045B31
:02016E00045B30
:02016F00045B2F
:02017000045B2E
:02017100045C2C
:02017200045C2B
:02017300045C2A
:02017400045C29
:02017500045C28
:02017600045D26
:02017700045D25
:02017800045D24
:02017900045D23
:02017A00045E21
:02017B00045E20
:02017C00045E1F
:02017D00045E1E
:02017E00045F1C
:02017F00045F1B
:02018000045F1A
:02018100045F19
:02018200046017
:02018300046016
:02018400046015
:02018500046014
:02018600046112
:02018700046111
:02018800046110
:0201890004610F
:02018A0004620D
:02018B0004620C
:02018C0004620B
:02018D0004620A
:02018E00046308
:02018F00046307
:02019000046306
:02019100046305
:02019200046403
:02019300046402
:02019400046401
:02019500046400
:020196000465FE
:020197000465FD
:020198000465FC
:020199000465FB
:02019A000466F9
:02019B000466F8
:02019C000466F7
:02019D000466F6
:02019E000467F4
:02019F000467F3
:0201A0000467F2
:0201A1000467F1
:0201A2000468EF
:0201A3000468EE
:0201A4000468ED
:0201A5000468EC
:0201A6000469EA
:0201A7000469E9
:0201A8000469E8
:0201A9000469E7
:0201AA00046AE5
:0201AB00046AE4
:0201AC00046AE3
:0201AD00046AE2
:0201AE00046BE0
:0201AF00046BDF
:0201B000046BDE
:0201B100046BDD
:0201B200046CDB
:0201B300046CDA
:0201B400046CD9
:0201B500046CD8
:0201B600046DD6
:0201B700046DD5
:0201B800046DD4
:0201B900046DD3
:0201BA00046ED1
:0201BB00046ED0
:0201BC00046ECF
:0201BD00046ECE
:0201BE00046FCC
:0201BF00046FCB
:0201C000046FCA
:0201C100046FC9
:0201C2000470C7
:0201C3000470C6
:0201C4000470C5
:0201C5000470C4
:0201C6000471C2
:0201C7000471C1
:0201C8000471C0
:0201C9000471BF
:0201CA000472BD
:0201CB000472BC
:0201CC000472BB
:0201CD000472BA
:0201CE000473B8
:0201CF000473B7
:0201D0000473B6
:0201D1000473B5
:0201D2000473B4
:0201D3000474B2
:0201D4000474B1
:0201D5000474B0
:0201D6000474AF
:0201D7000475AD
:0201D8000475AC
:0201D9000475AB
:0201DA000475AA
:0201DB000476A8
:0201DC000476A7
:0201DD000476A6
:0201DE000476A5
:0201DF000477A3
:0201E0000477A2
:0201E1000477A1
:0201E2000477A0
:0201E30004789E
:0201E40004789D
:0201E50004789C
:0201E60004789B
:0201E700047999
:0201E800047998
:0201E900047997
:0201EA00047996
:0201EB00047A94
:0201EC00047A93
:0201ED00047A92
:0201EE00047A91
:0201EF00047B8F
:0201F000047B8E
:0201F100047B8D
:0201F200047B8C
:0201F300047C8A
:0201F400047C89
:0201F500047C88
:0201F600047C87
:0201F700047D85
:0201F800047D84
:0201F900047D83
:0201FA00047D82
:0201FB00047E80
:0201FC00047E7F
:0201FD00047E7E
:0201FE00047E7D
:0201FF00047F7B
:02020000047F79
:02020100047F78
:02020200047F77
:02020300048075
:02020400048074
:02020500048073
:02020600048072
:02020700048170
:0202080004816F
:0202090004816E
:02020A0004816D
:02020B0004826B
:02020C0004826A
:02020D00048269
:02020E00048268
:02020F00048366
:02021000048365
:02021100048364
:02021200048363
:02021300048461
:02021400048460
:0202150004845F
:0202160004845E
:0202170004845D
:0202180004855B
:0202190004855A
:02021A00048559
:02021B00048558
:02021C00048656
:02021D00048655
:02021E00048654
:02021F00048653
:02022000048751
:02022100048750
:0202220004874F
:0202230004874E
:0202240004884C
:0202250004884B
:0202260004884A
:02022700048849
:02022800048947
:02022900048946
:02022A00048945
:02022B00048944
:02022C00048A42
:02022D00048A41
:02022E00048A40
:02022F00048A3F
:02023000048B3D
:02023100048B3C
:02023200048B3B
:02023300048B3A
:02023400048C38
:02023500048C37
:02023600048C36
:02023700048C35
:02023800048D33
:02023900048D32
:02023A00048D31
:02023B00048D30
:02023C00048E2E
:02023D00048E2D
:02023E00048E2C
:02023F00048E2B
:02024000048F29
:02024100048F28
:02024200048F27
:02024300048F26
:02024400049024
:02024500049023
:02024600049022
:02024700049021
:0202480004911F
:0202490004911E
:02024A0004911D
:02024B0004911C
:02024C0004911B
:02024D00049219
:02024E00049218
:02024F00049217
:02025000049216
:02025100049314
:02025200049313
:02025300049312
:02025400049311
:0202550004940F
:0202560004940E
:0202570004940D
:0202580004940C
:0202590004950A
:02025A00049509
:02025B00049508
:02025C00049507
:02025D00049605
:02025E00049604
:02025F00049603
:02026000049602
:02026100049700
:020262000497FF
:020263000497FE
:020264000497FD
:020265000498FB
:020266000498FA
:020267000498F9
:020268000498F8
:020269000499F6
:02026A000499F5
:02026B000499F4
:02026C000499F3
:02026D00049AF1
:02026E00049AF0
:02026F00049AEF
:02027000049AEE
:02027100049BEC
:02027200049BEB
:02027300049BEA
:02027400049BE9
:02027500049CE7
:02027600049CE6
:02027700049CE5
:02027800049CE4
:02027900049DE2
:02027A00049DE1
:02027B00049DE0
:02027C00049DDF
:02027D00049DDE
:02027E00049EDC
:02027F00049EDB
:02028000049EDA
:02028100049ED9
:02028200049FD7
:02028300049FD6
:02028400049FD5
:02028500049FD4
:0202860004A0D2
:0202870004A0D1
:0202880004A0D0
:0202890004A0CF
:02028A0004A1CD
:02028B0004A1CC
:02028C0004A1CB
:02028D0004A1CA
:02028E0004A2C8
:02028F0004A2C7
:0202900004A2C6
:0202910004A2C5
:0202920004A3C3
:0202930004A3C2
:0202940004A3C1
:0202950004A3C0
:0202960004A4BE
:0202970004A4BD
:0202980004A4BC
:0202990004A4BB
:02029A0004A5B9
:02029B0004A5B8
:02029C0004A5B7
:02029D0004A5B6
:02029E0004A6B4
:02029F0004A6B3
:0202A00004A6B2
:0202A10004A6B1
:0202A20004A6B0
:0202A30004A7AE
:0202A40004A7AD
:0202A50004A7AC
:0202A60004A7AB
:0202A70004A8A9
:0202A80004A8A8
:0202A90004A8A7
:0202AA0004A8A6
:0202AB0004A9A4
:0202AC0004A9A3
:0202AD0004A9A2
:0202AE0004A9A1
:0202AF0004AA9F
:0202B00004AA9E
:0202B10004AA9D
:0202B20004AA9C
:0202B30004AB9A
:0202B40004AB99
:0202B50004AB98
:0202B60004AB97
:0202B70004AC95
:0202B80004AC94
:0202B90004AC93
:0202BA0004AC92
:0202BB0004AD90
:0202BC0004AD8F
:0202BD0004AD8E
:0202BE0004AD8D
:0202BF0004AE8B
:0202C00004AE8A
:0202C10004AE89
:0202C20004AE88
:0202C30004AF86
:0202C40004AF85
:0202C50004AF84
:0202C60004AF83
:0202C70004AF82
:0202C80004B080
:0202C90004B07F
:0202CA0004B07E
:0202CB0004B07D
:0202CC0004B17B
:0202CD0004B17A
:0202CE0004B179
:0202CF0004B178
:0202D00004B276
:0202D10004B275
:0202D20004B274
:0202D30004B273
:0202D40004B371
:0202D50004B370
:0202D60004B36F
:0202D70004B36E
:0202D80004B46C
:0202D90004B46B
:0202DA0004B46A
:0202DB0004B469
:0202DC0004B567
:0202DD0004B566
:0202DE0004B565
:0202DF0004B564
:0202E00004B662
:0202E10004B661
:0202E20004B660
:0202E30004B65F
:0202E40004B75D
:0202E50004B75C
:0202E60004B75B
:0202E70004B75A
:0202E80004B759
:0202E90004B857
:0202EA0004B856
:0202EB0004B855
:0202EC0004B854
:0202ED0004B952
:0202EE0004B951
:0202EF0004B950
:0202F00004B94F
:0202F10004BA4D
:0202F20004BA4C
:0202F30004BA4B
:0202F40004BA4A
:0202F50004BB48
:0202F60004BB47
:0202F70004BB46
:0202F80004BB45
:0202F90004BC43
:0202FA0004BC42
:0202FB0004BC41
:0202FC0004BC40
:0202FD0004BD3E
:0202FE0004BD3D
:0202FF0004BD3C
:0203000004BD3A
:0203010004BE38
:0203020004BE37
:0203030004BE36
:0203040004BE35
:0203050004BE34
:0203060004BF32
:0203070004BF31
:0203080004BF30
:0203090004BF2F
:02030A0004C02D
:02030B0004C02C
:02030C0004C02B
:02030D0004C02A
:02030E0004C128
:02030F0004C127
:0203100004C126
:0203110004C125
:0203120004C223
:0203130004C222
:0203140004C221
:0203150004C220
:0203160004C31E
:0203170004C31D
:0203180004C31C
:0203190004C31B
:02031A0004C419
:02031B0004C418
:02031C0004C417
:02031D0004C416
:02031E0004C514
:02031F0004C513
:0203200004C512
:0203210004C511
:0203220004C510
:0203230004C60E
:0203240004C60D
:0203250004C60C
:0203260004C60B
:0203270004C709
:0203280004C708
:0203290004C707
:02032A0004C706
:02032B0004C804
:02032C0004C803
:02032D0004C802
:02032E0004C801
:02032F0004C9FF
:0203300004C9FE
:0203310004C9FD
:0203320004C9FC
:0203330004CAFA
:0203340004CAF9
:0203350004CAF8
:0203360004CAF7
:0203370004CBF5
:0203380004CBF4
:0203390004CBF3
:02033A0004CBF2
:02033B0004CBF1
:02033C0004CCEF
:02033D0004CCEE
:02033E0004CCED
:02033F0004CCEC
:0203400004CDEA
:0203410004CDE9
:0203420004CDE8
:0203430004CDE7
:0203440004CEE5
:0203450004CEE4
:0203460004CEE3
:0203470004CEE2
:0203480004CFE0
:0203490004CFDF
:02034A0004CFDE
:02034B0004CFDD
:02034C0004D0DB
:02034D0004D0DA
:02034E0004D0D9
:02034F0004D0D8
:0203500004D1D6
:0203510004D1D5
:0203520004D1D4
:0203530004D1D3
:0203540004D1D2
:0203550004D2D0
:0203560004D2CF
:0203570004D2CE
:0203580004D2CD
:0203590004D3CB
:02035A0004D3CA
:02035B0004D3C9
:02035C0004D3C8
:02035D0004D4C6
:02035E0004D4C5
:02035F0004D4C4
:0203600004D4C3
:0203610004D5C1
:0203620004D5C0
:0203630004D5BF
:0203640004D5BE
:0203650004D6BC
:0203660004D6BB
:0203670004D6BA
:0203680004D6B9
:0203690004D7B7
:02036A0004D7B6
:02036B0004D7B5
:02036C0004D7B4
:02036D0004D7B3
:02036E0004D8B1
:02036F0004D8B0
:0203700004D8AF
:0203710004D8AE
:0203720004D9AC
:0203730004D9AB
:0203740004D9AA
:0203750004D9A9
:0203760004DAA7
:0203770004DAA6
:0203780004DAA5
:0203790004DAA4
:02037A0004DBA2
:02037B0004DBA1
:02037C0004DBA0
:02037D0004DB9F
:02037E0004DC9D
:02037F0004DC9C
:0203800004DC9B
:0203810004DC9A
:0203820004DC99
:0203830004DD97
:0203840004DD96
:0203850004DD95
:0203860004DD94
:0203870004DE92
:0203880004DE91
:0203890004DE90
:02038A0004DE8F
:02038B0004DF8D
:02038C0004DF8C
:02038D0004DF8B
:02038E0004DF8A
:02038F0004E088
:0203900004E087
:0203910004E086
:0203920004E085
:0203930004E183
:0203940004E182
:0203950004E181
:0203960004E180
:0203970004E17F
:0203980004E27D
:0203990004E27C
:02039A0004E27B
:02039B0004E27A
:02039C0004E378
:02039D0004E377
:02039E0004E376
:02039F0004E375
:0203A00004E473
:0203A10004E472
:0203A20004E471
:0203A30004E470
:0203A40004E56E
:0203A50004E56D
:0203A60004E56C
:0203A70004E56B
:0203A80004E669
:0203A90004E668
:0203AA0004E667
:0203AB0004E666
:0203AC0004E665
:0203AD0004E763
:0203AE0004E762
:0203AF0004E761
:0203B00004E760
:0203B10004E85E
:0203B20004E85D
:0203B30004E85C
:0203B40004E85B
:0203B50004E959
:0203B60004E958
:0203B70004E957
:0203B80004E956
:0203B90004EA54
:0203BA0004EA53
:0203BB0004EA52
:0203BC0004EA51
:0203BD0004EA50
:0203BE0004EB4E
:0203BF0004EB4D
:0203C00004EB4C
:0203C10004EB4B
:0203C20004EC49
:0203C30004EC48
:0203C40004EC47
:0203C50004EC46
:0203C60004ED44
:0203C70004ED43
:0203C80004ED42
:0203C90004ED41
:0203CA0004EE3F
:0203CB0004EE3E
:0203CC0004EE3D
:0203CD0004EE3C
:0203CE0004EF3A
:0203CF0004EF39
:0203D00004EF38
:0203D10004EF37
:0203D20004EF36
:0203D30004F034
:0203D40004F033
:0203D50004F032
:0203D60004F031
:0203D70004F12F
:0203D80004F12E
:0203D90004F12D
:0203DA0004F12C
:0203DB0004F22A
:0203DC0004F229
:0203DD0004F228
:0203DE0004F227
:0203DF0004F325
:0203E00004F324
:0203E10004F323
:0203E20004F322
:0203E30004F321
:0203E40004F41F
:0203E50004F41E
:0203E60004F41D
:0203E70004F41C
:0203E80004F51A
:0203E90004F519
:0203EA0004F518
:0203EB0004F517
:0203EC0004F615
:0203ED0004F614
:0203EE0004F613
:0203EF0004F612
:0203F00004F710
:0203F10004F70F
:0203F20004F70E
:0203F30004F70D
:0203F40004F70C
:0203F50004F80A
:0203F60004F809
:0203F70004F808
:0203F80004F807
:0203F90004F905
:0203FA0004F904
:0203FB0004F903
:0203FC0004F902
:0203FD0004FA00
:0203FE0004FAFF
:0203FF0004FAFE
:0204000004FAFC
:0204010004FBFA
:0204020004FBF9
:0204030004FBF8
:0204040004FBF7
:0204050004FBF6
:0204060004FCF4
:0204070004FCF3
:0204080004FCF2
:0204090004FCF1
:02040A0004FDEF
:02040B0004FDEE
:02040C0004FDED
:02040D0004FDEC
:02040E0004FEEA
:02040F0004FEE9
:0204100004FEE8
:0204110004FEE7
:0204120004FFE5
:0204130004FFE4
:0204140004FFE3
:0204150004FFE2
:0204160004FFE1
:020417000500DE
:020418000500DD
:020419000500DC
:02041A000500DB
:02041B000501D9
:02041C000501D8
:02041D000501D7
:02041E000501D6
:02041F000502D4
:020420000502D3
:020421000502D2
:020422000502D1
:020423000503CF
:020424000503CE
:020425000503CD
:020426000503CC
:020427000503CB
:020428000504C9
:020429000504C8
:02042A000504C7
:02042B000504C6
:02042C000505C4
:02042D000505C3
:02042E000505C2
:02042F000505C1
:020430000506BF
:020431000506BE
:020432000506BD
:020433000506BC
:020434000506BB
:020435000507B9
:020436000507B8
:020437000507B7
:020438000507B6
:020439000508B4
:02043A000508B3
:02043B000508B2
:02043C000508B1
:02043D000509AF
:02043E000509AE
:02043F000509AD
:020440000509AC
:02044100050AAA
:02044200050AA9
:02044300050AA8
:02044400050AA7
:02044500050AA6
:02044600050BA4
:02044700050BA3
:02044800050BA2
:02044900050BA1
:02044A00050C9F
:02044B00050C9E
:02044C00050C9D
:02044D00050C9C
:02044E00050D9A
:02044F00050D99
:02045000050D98
:02045100050D97
:02045200050D96
:02045300050E94
:02045400050E93
:02045500050E92
:02045600050E91
:02045700050F8F
:02045800050F8E
:02045900050F8D
:02045A00050F8C
:02045B0005108A
:02045C00051089
:02045D00051088
:02045E00051087
:02045F00051086
:02046000051184
:02046100051183
:02046200051182
:02046300051181
:0204640005127F
:0204650005127E
:0204660005127D
:0204670005127C
:0204680005137A
:02046900051379
:02046A00051378
:02046B00051377
:02046C00051475
:02046D00051474
:02046E00051473
:02046F00051472
:02047000051471
:0204710005156F
:0204720005156E
:0204730005156D
:0204740005156C
:0204750005166A
:02047600051669
:02047700051668
:02047800051667
:02047900051765
:02047A00051764
:02047B00051763
:02047C00051762
:02047D00051761
:02047E0005185F
:02047F0005185E
:0204800005185D
:0204810005185C
:0204820005195A
:02048300051959
:02048400051958
:02048500051957
:02048600051A55
:02048700051A54
:02048800051A53
:02048900051A52
:02048A00051A51
:02048B00051B4F
:02048C00051B4E
:02048D00051B4D
:02048E00051B4C
:02048F00051C4A
:02049000051C49
:02049100051C48
:02049200051C47
:02049300051D45
:02049400051D44
:02049500051D43
:02049600051D42
:02049700051D41
:02049800051E3F
:02049900051E3E
:02049A00051E3D
:02049B00051E3C
:02049C00051F3A
:02049D00051F39
:02049E00051F38
:02049F00051F37
:0204A000052035
:0204A100052034
:0204A200052033
:0204A300052032
:0204A400052031
:0204A50005212F
:0204A60005212E
:0204A70005212D
:0204A80005212C
:0204A90005222A
:0204AA00052229
:0204AB00052228
:0204AC00052227
:0204AD00052325
:0204AE00052324
:0204AF00052323
:0204B000052322
:0204B100052321
:0204B20005241F
:0204B30005241E
:0204B40005241D
:0204B50005241C
:0204B60005251A
:0204B700052519
:0204B800052518
:0204B900052517
:0204BA00052516
:0204BB00052614
:0204BC00052613
:0204BD00052612
:0204BE00052611
:0204BF0005270F
:0204C00005270E
:0204C10005270D
:0204C20005270C
:0204C30005280A
:0204C400052809
:0204C500052808
:0204C600052807
:0204C700052806
:0204C800052904
:0204C900052903
:0204CA00052902
:0204CB00052901
:0204CC00052AFF
:0204CD00052AFE
:0204CE00052AFD
:0204CF00052AFC
:0204D000052BFA
:0204D100052BF9
:0204D200052BF8
:0204D300052BF7
:0204D400052BF6
:0204D500052CF4
:0204D600052CF3
:0204D700052CF2
:0204D800052CF1
:0204D900052DEF
:0204DA00052DEE
:0204DB00052DED
:0204DC00052DEC
:0204DD00052EEA
:0204DE00052EE9
:0204DF00052EE8
:0204E000052EE7
:0204E100052EE6
:0204E200052FE4
:0204E300052FE3
:0204E400052FE2
:0204E500052FE1
:0204E6000530DF
:0204E7000530DE
:0204E8000530DD
:0204E9000530DC
:0204EA000530DB
:0204EB000531D9
:0204EC000531D8
:0204ED000531D7
:0204EE000531D6
:0204EF000532D4
:0204F0000532D3
:0204F1000532D2
:0204F2000532D1
:0204F3000533CF
:0204F4000533CE
:0204F5000533CD
:0204F6000533CC
:0204F7000533CB
:0204F8000534C9
:0204F9000534C8
:0204FA000534C7
:0204FB000534C6
:0204FC000535C4
:0204FD000535C3
:0204FE000535C2
:0204FF000535C1
:020500000535BF
:020501000536BD
:020502000536BC
:020503000536BB
:020504000536BA
:020505000537B8
:020506000537B7
:020507000537B6
:020508000537B5
:020509000538B3
:02050A000538B2
:02050B000538B1
:02050C000538B0
:02050D000538AF
:02050E000539AD
:02050F000539AC
:020510000539AB
:020511000539AA
:02051200053AA8
:02051300053AA7
:02051400053AA6
:02051500053AA5
:02051600053AA4
:02051700053BA2
:02051800053BA1
:02051900053BA0
:02051A00053B9F
:02051B00053C9D
:02051C00053C9C
:02051D00053C9B
:02051E00053C9A
:02051F00053C99
:02052000053D97
:02052100053D96
:02052200053D95
:02052300053D94
:02052400053E92
:02052500053E91
:02052600053E90
:02052700053E8F
:02052800053F8D
:02052900053F8C
:02052A00053F8B
:02052B00053F8A
:02052C00053F89
:02052D00054087
:02052E00054086
:02052F00054085
:02053000054084
:02053100054182
:02053200054181
:02053300054180
:0205340005417F
:0205350005417E
:0205360005427C
:0205370005427B
:0205380005427A
:02053900054279
:02053A00054377
:02053B00054376
:02053C00054375
:02053D00054374
:02053E00054373
:02053F00054471
:02054000054470
:0205410005446F
:0205420005446E
:0205430005456C
:0205440005456B
:0205450005456A
:02054600054569
:02054700054667
:02054800054666
:02054900054665
:02054A00054664
:02054B00054663
:02054C00054761
:02054D00054760
:02054E0005475F
:02054F0005475E
:0205500005485C
:0205510005485B
:0205520005485A
:02055300054859
:02055400054858
:02055500054956
:02055600054955
:02055700054954
:02055800054953
:02055900054A51
:02055A00054A50
:02055B00054A4F
:02055C00054A4E
:02055D00054A4D
:02055E00054B4B
:02055F00054B4A
:02056000054B49
:02056100054B48
:02056200054C46
:02056300054C45
:02056400054C44
:02056500054C43
:02056600054C42
:02056700054D40
:02056800054D3F
:02056900054D3E
:02056A00054D3D
:02056B00054E3B
:02056C00054E3A
:02056D00054E39
:02056E00054E38
:02056F00054E37
:02057000054F35
:02057100054F34
:02057200054F33
:02057300054F32
:02057400055030
:0205750005502F
:0205760005502E
:0205770005502D
:0205780005502C
:0205790005512A
:02057A00055129
:02057B00055128
:02057C00055127
:02057D00055225
:02057E00055224
:02057F00055223
:02058000055222
:02058100055221
:0205820005531F
:0205830005531E
:0205840005531D
:0205850005531C
:0205860005541A
:02058700055419
:02058800055418
:02058900055417
:02058A00055416
:02058B00055514
:02058C00055513
:02058D00055512
:02058E00055511
:02058F0005560F
:0205900005560E
:0205910005560D
:0205920005560C
:0205930005560B
:02059400055709
:02059500055708
:02059600055707
:02059700055706
:02059800055804
:02059900055803
:02059A00055802
:02059B00055801
:02059C00055800
:02059D000559FE
:02059E000559FD
:02059F000559FC
:0205A0000559FB
:0205A100055AF9
:0205A200055AF8
:0205A300055AF7
:0205A400055AF6
:0205A500055AF5
:0205A600055BF3
:0205A700055BF2
:0205A800055BF1
:0205A900055BF0
:0205AA00055CEE
:0205AB00055CED
:0205AC00055CEC
:0205AD00055CEB
:0205AE00055CEA
:0205AF00055DE8
:0205B000055DE7
:0205B100055DE6
:0205B200055DE5
:0205B300055EE3
:0205B400055EE2
:0205B500055EE1
:0205B600055EE0
:0205B700055EDF
:0205B800055FDD
:0205B900055FDC
:0205BA00055FDB
:0205BB00055FDA
:0205BC000560D8
:0205BD000560D7
:0205BE000560D6
:0205BF000560D5
:0205C0000560D4
:0205C1000561D2
:0205C2000561D1
:0205C3000561D0
:0205C4000561CF
:0205C5000562CD
:0205C6000562CC
:0205C7000562CB
:0205C8000562CA
:0205C9000562C9
:0205CA000563C7
:0205CB000563C6
:0205CC000563C5
:0205CD000563C4
:0205CE000564C2
:0205CF000564C1
:0205D0000564C0
:0205D1000564BF
:0205D2000564BE
:0205D3000565BC
:0205D4000565BB
:0205D5000565BA
:0205D6000565B9
:0205D7000565B8
:0205D8000566B6
:0205D9000566B5
:0205DA000566B4
:0205DB000566B3
:0205DC000567B1
:0205DD000567B0
:0205DE000567AF
:0205DF000567AE
:0205E0000567AD
:0205E1000568AB
:0205E2000568AA
:0205E3000568A9
:0205E4000568A8
:0205E5000569A6
:0205E6000569A5
:0205E7000569A4
:0205E8000569A3
:0205E9000569A2
:0205EA00056AA0
:0205EB00056A9F
:0205EC00056A9E
:0205ED00056A9D
:0205EE00056B9B
:0205EF00056B9A
:0205F000056B99
:0205F100056B98
:0205F200056B97
:0205F300056C95
:0205F400056C94
:0205F500056C93
:0205F600056C92
:0205F700056C91
:0205F800056D8F
:0205F900056D8E
:0205FA00056D8D
:0205FB00056D8C
:0205FC00056E8A
:0205FD00056E89
:0205FE00056E88
:0205FF00056E87
:02060000056E85
:02060100056F83
:02060200056F82
:02060300056F81
:02060400056F80
:0206050005707E
:0206060005707D
:0206070005707C
:0206080005707B
:0206090005707A
:02060A00057178
:02060B00057177
:02060C00057176
:02060D00057175
:02060E00057273
:02060F00057272
:02061000057271
:02061100057270
:0206120005726F
:0206130005736D
:0206140005736C
:0206150005736B
:0206160005736A
:02061700057369
:02061800057467
:02061900057466
:02061A00057465
:02061B00057464
:02061C00057562
:02061D00057561
:02061E00057560
:02061F0005755F
:0206200005755E
:0206210005765C
:0206220005765B
:0206230005765A
:02062400057659
:02062500057658
:02062600057756
:02062700057755
:02062800057754
:02062900057753
:02062A00057851
:02062B00057850
:02062C0005784F
:02062D0005784E
:02062E0005784D
:02062F0005794B
:0206300005794A
:02063100057949
:02063200057948
:02063300057A46
:02063400057A45
:02063500057A44
:02063600057A43
:02063700057A42
:02063800057B40
:02063900057B3F
:02063A00057B3E
:02063B00057B3D
:02063C00057B3C
:02063D00057C3A
:02063E00057C39
:02063F00057C38
:02064000057C37
:02064100057D35
:02064200057D34
:02064300057D33
:02064400057D32
:02064500057D31
:02064600057E2F
:02064700057E2E
:02064800057E2D
:02064900057E2C
:02064A00057E2B
:02064B00057F29
:02064C00057F28
:02064D00057F27
:02064E00057F26
:02064F00058024
:02065000058023
:02065100058022
:02065200058021
:02065300058020
:0206540005811E
:0206550005811D
:0206560005811C
:0206570005811B
:0206580005811A
:02065900058218
:02065A00058217
:02065B00058216
:02065C00058215
:02065D00058313
:02065E00058312
:02065F00058311
:02066000058310
:0206610005830F
:0206620005840D
:0206630005840C
:0206640005840B
:0206650005840A
:02066600058409
:02066700058507
:02066800058506
:02066900058505
:02066A00058504
:02066B00058602
:02066C00058601
:02066D00058600
:02066E000586FF
:02066F000586FE
:020670000587FC
:020671000587FB
:020672000587FA
:020673000587F9
:020674000587F8
:020675000588F6
:020676000588F5
:020677000588F4
:020678000588F3
:020679000589F1
:02067A000589F0
:02067B000589EF
:02067C000589EE
:02067D000589ED
:02067E00058AEB
:02067F00058AEA
:02068000058AE9
:02068100058AE8
:02068200058AE7
:02068300058BE5
:02068400058BE4
:02068500058BE3
:02068600058BE2
:02068700058CE0
:02068800058CDF
:02068900058CDE
:02068A00058CDD
:02068B00058CDC
:02068C00058DDA
:02068D00058DD9
:02068E00058DD8
:02068F00058DD7
:02069000058DD6
:02069100058ED4
:02069200058ED3
:02069300058ED2
:02069400058ED1
:02069500058ED0
:02069600058FCE
:02069700058FCD
:02069800058FCC
:02069900058FCB
:02069A000590C9
:02069B000590C8
:02069C000590C7
:02069D000590C6
:02069E000590C5
:02069F000591C3
:0206A0000591C2
:0206A1000591C1
:0206A2000591C0
:0206A3000591BF
:0206A4000592BD
:0206A5000592BC
:0206A6000592BB
:0206A7000592BA
:0206A8000593B8
:0206A9000593B7
:0206AA000593B6
:0206AB000593B5
:0206AC000593B4
:0206AD000594B2
:0206AE000594B1
:0206AF000594B0
:0206B0000594AF
:0206B1000594AE
:0206B2000595AC
:0206B3000595AB
:0206B4000595AA
:0206B5000595A9
:0206B6000595A8
:0206B7000596A6
:0206B8000596A5
:0206B9000596A4
:0206BA000596A3
:0206BB000597A1
:0206BC000597A0
:0206BD0005979F
:0206BE0005979E
:0206BF0005979D
:0206C00005989B
:0206C10005989A
:0206C200059899
:0206C300059898
:0206C400059897
:0206C500059995
:0206C600059994
:0206C700059993
:0206C800059992
:0206C900059991
:0206CA00059A8F
:0206CB00059A8E
:0206CC00059A8D
:0206CD00059A8C
:0206CE00059B8A
:0206CF00059B89
:0206D000059B88
:0206D100059B87
:0206D200059B86
:0206D300059C84
:0206D400059C83
:0206D500059C82
:0206D600059C81
:0206D700059C80
:0206D800059D7E
:0206D900059D7D
:0206DA00059D7C
:0206DB00059D7B
:0206DC00059D7A
:0206DD00059E78
:0206DE00059E77
:0206DF00059E76
:0206E000059E75
:0206E100059E74
:0206E200059F72
:0206E300059F71
:0206E400059F70
:0206E500059F6F
:0206E60005A06D
:0206E70005A06C
:0206E80005A06B
:0206E90005A06A
:0206EA0005A069
:0206EB0005A167
:0206EC0005A166
:0206ED0005A165
:0206EE0005A164
:0206EF0005A163
:0206F00005A261
:0206F10005A260
:0206F20005A25F
:0206F30005A25E
:0206F40005A25D
:0206F50005A35B
:0206F60005A35A
:0206F70005A359
:0206F80005A358
:0206F90005A357
:0206FA0005A455
:0206FB0005A454
:0206FC0005A453
:0206FD0005A452
:0206FE0005A550
:0206FF0005A54F
:0207000005A54D
:0207010005A54C
:0207020005A54B
:0207030005A649
:0207040005A648
:0207050005A647
:0207060005A646
:0207070005A645
:0207080005A743
:0207090005A742
:02070A0005A741
:02070B0005A740
:02070C0005A73F
:02070D0005A83D
:02070E0005A83C
:02070F0005A83B
:0207100005A83A
:0207110005A839
:0207120005A937
:0207130005A936
:0207140005A935
:0207150005A934
:0207160005AA32
:0207170005AA31
:0207180005AA30
:0207190005AA2F
:02071A0005AA2E
:02071B0005AB2C
:02071C0005AB2B
:02071D0005AB2A
:02071E0005AB29
:02071F0005AB28
:0207200005AC26
:0207210005AC25
:0207220005AC24
:0207230005AC23
:0207240005AC22
:0207250005AD20
:0207260005AD1F
:0207270005AD1E
:0207280005AD1D
:0207290005AD1C
:02072A0005AE1A
:02072B0005AE19
:02072C0005AE18
:02072D0005AE17
:02072E0005AE16
:02072F0005AF14
:0207300005AF13
:0207310005AF12
:0207320005AF11
:0207330005AF10
:0207340005B00E
:0207350005B00D
:0207360005B00C
:0207370005B00B
:0207380005B109
:0207390005B108
:02073A0005B107
:02073B0005B106
:02073C0005B105
:02073D0005B203
:02073E0005B202
:02073F0005B201
:0207400005B200
:0207410005B2FF
:0207420005B3FD
:0207430005B3FC
:0207440005B3FB
:0207450005B3FA
:0207460005B3F9
:0207470005B4F7
:0207480005B4F6
:0207490005B4F5
:02074A0005B4F4
:02074B0005B4F3
:02074C0005B5F1
:02074D0005B5F0
:02074E0005B5EF
:02074F0005B5EE
:0207500005B5ED
:0207510005B6EB
:0207520005B6EA
:0207530005B6E9
:0207540005B6E8
:0207550005B6E7
:0207560005B7E5
:0207570005B7E4
:0207580005B7E3
:0207590005B7E2
:02075A0005B7E1
:02075B0005B8DF
:02075C0005B8DE
:02075D0005B8DD
:02075E0005B8DC
:02075F0005B8DB
:0207600005B9D9
:0207610005B9D8
:0207620005B9D7
:0207630005B9D6
:0207640005BAD4
:0207650005BAD3
:0207660005BAD2
:0207670005BAD1
:0207680005BAD0
:0207690005BBCE
:02076A0005BBCD
:02076B0005BBCC
:02076C0005BBCB
:02076D0005BBCA
:02076E0005BCC8
:02076F0005BCC7
:0207700005BCC6
:0207710005BCC5
:0207720005BCC4
:0207730005BDC2
:0207740005BDC1
:0207750005BDC0
:0207760005BDBF
:0207770005BDBE
:0207780005BEBC
:0207790005BEBB
:02077A0005BEBA
:02077B0005BEB9
:02077C0005BEB8
:02077D0005BFB6
:02077E0005BFB5
:02077F0005BFB4
:0207800005BFB3
:0207810005BFB2
:0207820005C0B0
:0207830005C0AF
:0207840005C0AE
:0207850005C0AD
:0207860005C0AC
:0207870005C1AA
:0207880005C1A9
:0207890005C1A8
:02078A0005C1A7
:02078B0005C1A6
:02078C0005C2A4
:02078D0005C2A3
:02078E0005C2A2
:02078F0005C2A1
:0207900005C2A0
:0207910005C39E
:0207920005C39D
:0207930005C39C
:0207940005C39B
:0207950005C39A
:0207960005C498
:0207970005C497
:0207980005C496
:0207990005C495
:02079A0005C494
:02079B0005C592
:02079C0005C591
:02079D0005C590
:02079E0005C58F
:02079F0005C58E
:0207A00005C68C
:0207A10005C68B
:0207A20005C68A
:0207A30005C689
:0207A40005C688
:0207A50005C786
:0207A60005C785
:0207A70005C784
:0207A80005C783
:0207A90005C782
:0207AA0005C880
:0207AB0005C87F
:0207AC0005C87E
:0207AD0005C87D
:0207AE0005C87C
:0207AF0005C97A
:0207B00005C979
:0207B10005C978
:0207B20005C977
:0207B30005C976
:0207B40005CA74
:0207B50005CA73
:0207B60005CA72
:0207B70005CA71
:0207B80005CA70
:0207B90005CB6E
:0207BA0005CB6D
:0207BB0005CB6C
:0207BC0005CB6B
:0207BD0005CB6A
:0207BE0005CC68
:0207BF0005CC67
:0207C00005CC66
:0207C10005CC65
:0207C20005CC64
:0207C30005CD62
:0207C40005CD61
:0207C50005CD60
:0207C60005CD5F
:0207C70005CD5E
:0207C80005CE5C
:0207C90005CE5B
:0207CA0005CE5A
:0207CB0005CE59
:0207CC0005CE58
:0207CD0005CF56
:0207CE0005CF55
:0207CF0005CF54
:0207D00005CF53
:0207D10005CF52
:0207D20005D050
:0207D30005D04F
:0207D40005D04E
:0207D50005D04D
:0207D60005D04C
:0207D70005D14A
:0207D80005D149
:0207D90005D148
:0207DA0005D147
:0207DB0005D146
:0207DC0005D244
:0207DD0005D243
:0207DE0005D242
:0207DF0005D241
:0207E00005D240
:0207E10005D33E
:0207E20005D33D
:0207E30005D33C
:0207E40005D33B
:0207E50005D33A
:0207E60005D438
:0207E70005D437
:0207E80005D436
:0207E90005D435
:0207EA0005D434
:0207EB0005D532
:0207EC0005D531
:0207ED0005D530
:0207EE0005D52F
:0207EF0005D52E
:0207F00005D62C
:0207F10005D62B
:0207F20005D62A
:0207F30005D629
:0207F40005D628
:0207F50005D726
:0207F60005D725
:0207F70005D724
:0207F80005D723
:0207F90005D722
:0207FA0005D820
:0207FB0005D81F
:0207FC0005D81E
:0207FD0005D81D
:0207FE0005D81C
:0207FF0005D91A
:0208000005D918
:0208010005D917
:0208020005D916
:0208030005D915
:0208040005D914
:0208050005DA12
:0208060005DA11
:0208070005DA10
:0208080005DA0F
:0208090005DA0E
:02080A0005DB0C
:02080B0005DB0B
:02080C0005DB0A
:02080D0005DB09
:02080E0005DB08
:02080F0005DC06
:0208100005DC05
:0208110005DC04
:0208120005DC03
:0208130005DC02
:0208140005DD00
:0208150005DDFF
:0208160005DDFE
:0208170005DDFD
:0208180005DDFC
:0208190005DEFA
:02081A0005DEF9
:02081B0005DEF8
:02081C0005DEF7
:02081D0005DEF6
:02081E0005DFF4
:02081F0005DFF3
:0208200005DFF2
:0208210005DFF1
:0208220005DFF0
:0208230005E0EE
:0208240005E0ED
:0208250005E0EC
:0208260005E0EB
:0208270005E0EA
:0208280005E1E8
:0208290005E1E7
:02082A0005E1E6
:02082B0005E1E5
:02082C0005E1E4
:02082D0005E2E2
:02082E0005E2E1
:02082F0005E2E0
:0208300005E2DF
:0208310005E2DE
:0208320005E2DD
:0208330005E3DB
:0208340005E3DA
:0208350005E3D9
:0208360005E3D8
:0208370005E3D7
:0208380005E4D5
:0208390005E4D4
:02083A0005E4D3
:02083B0005E4D2
:02083C0005E4D1
:02083D0005E5CF
:02083E0005E5CE
:02083F0005E5CD
:0208400005E5CC
:0208410005E5CB
:0208420005E6C9
:0208430005E6C8
:0208440005E6C7
:0208450005E6C6
:0208460005E6C5
:0208470005E7C3
:0208480005E7C2
:0208490005E7C1
:02084A0005E7C0
:02084B0005E7BF
:02084C0005E8BD
:02084D0005E8BC
:02084E0005E8BB
:02084F0005E8BA
:0208500005E8B9
:0208510005E8B8
:0208520005E9B6
:0208530005E9B5
:0208540005E9B4
:0208550005E9B3
:0208560005E9B2
:0208570005EAB0
:0208580005EAAF
:0208590005EAAE
:02085A0005EAAD
:02085B0005EAAC
:02085C0005EBAA
:02085D0005EBA9
:02085E0005EBA8
:02085F0005EBA7
:0208600005EBA6
:0208610005ECA4
:0208620005ECA3
:0208630005ECA2
:0208640005ECA1
:0208650005ECA0
:0208660005ED9E
:0208670005ED9D
:0208680005ED9C
:0208690005ED9B
:02086A0005ED9A
:02086B0005ED99
:02086C0005EE97
:02086D0005EE96
:02086E0005EE95
:02086F0005EE94
:0208700005EE93
:0208710005EF91
:0208720005EF90
:0208730005EF8F
:0208740005EF8E
:0208750005EF8D
:0208760005F08B
:0208770005F08A
:0208780005F089
:0208790005F088
:02087A0005F087
:02087B0005F185
:02087C0005F184
:02087D0005F183
:02087E0005F182
:02087F0005F181
:0208800005F27F
:0208810005F27E
:0208820005F27D
:0208830005F27C
:0208840005F27B
:0208850005F27A
:0208860005F378
:0208870005F377
:0208880005F376
:0208890005F375
:02088A0005F374
:02088B0005F472
:02088C0005F471
:02088D0005F470
:02088E0005F46F
:02088F0005F46E
:0208900005F56C
:0208910005F56B
:0208920005F56A
:0208930005F569
:0208940005F568
:0208950005F666
:0208960005F665
:0208970005F664
:0208980005F663
:0208990005F662
:02089A0005F661
:02089B0005F75F
:02089C0005F75E
:02089D0005F75D
:02089E0005F75C
:02089F0005F75B
:0208A00005F859
:0208A10005F858
:0208A20005F857
:0208A30005F856
:0208A40005F855
:0208A50005F953
:0208A60005F952
:0208A70005F951
:0208A80005F950
:0208A90005F94F
:0208AA0005F94E
:0208AB0005FA4C
:0208AC0005FA4B
:0208AD0005FA4A
:0208AE0005FA49
:0208AF0005FA48
:0208B00005FB46
:0208B10005FB45
:0208B20005FB44
:0208B30005FB43
:0208B40005FB42
:0208B50005FC40
:0208B60005FC3F
:0208B70005FC3E
:0208B80005FC3D
:0208B90005FC3C
:0208BA0005FD3A
:0208BB0005FD39
:0208BC0005FD38
:0208BD0005FD37
:0208BE0005FD36
:0208BF0005FD35
:0208C00005FE33
:0208C10005FE32
:0208C20005FE31
:0208C30005FE30
:0208C40005FE2F
:0208C50005FF2D
:0208C60005FF2C
:0208C70005FF2B
:0208C80005FF2A
:0208C90005FF29
:0208CA00060026
:0208CB00060025
:0208CC00060024
:0208CD00060023
:0208CE00060022
:0208CF00060021
:0208D00006011F
:0208D10006011E
:0208D20006011D
:0208D30006011C
:0208D40006011B
:0208D500060219
:0208D600060218
:0208D700060217
:0208D800060216
:0208D900060215
:0208DA00060313
:0208DB00060312
:0208DC00060311
:0208DD00060310
:0208DE0006030F
:0208DF0006030E
:0208E00006040C
:0208E10006040B
:0208E20006040A
:0208E300060409
:0208E400060408
:0208E500060506
:0208E600060505
:0208E700060504
:0208E800060503
:0208E900060502
:0208EA00060501
:0208EB000606FF
:0208EC000606FE
:0208ED000606FD
:0208EE000606FC
:0208EF000606FB
:0208F0000607F9
:0208F1000607F8
:0208F2000607F7
:0208F3000607F6
:0208F4000607F5
:0208F5000608F3
:0208F6000608F2
:0208F7000608F1
:0208F8000608F0
:0208F9000608EF
:0208FA000608EE
:0208FB000609EC
:0208FC000609EB
:0208FD000609EA
:0208FE000609E9
:0208FF000609E8
:02090000060AE5
:02090100060AE4
:02090200060AE3
:02090300060AE2
:02090400060AE1
:02090500060AE0
:02090600060BDE
:02090700060BDD
:02090800060BDC
:02090900060BDB
:02090A00060BDA
:02090B00060CD8
:02090C00060CD7
:02090D00060CD6
:02090E00060CD5
:02090F00060CD4
:02091000060DD2
:02091100060DD1
:02091200060DD0
:02091300060DCF
:02091400060DCE
:02091500060DCD
:02091600060ECB
:02091700060ECA
:02091800060EC9
:02091900060EC8
:02091A00060EC7
:02091B00060FC5
:02091C00060FC4
:02091D00060FC3
:02091E00060FC2
:02091F00060FC1
:02092000060FC0
:020921000610BE
:020922000610BD
:020923000610BC
:020924000610BB
:020925000610BA
:020926000611B8
:020927000611B7
:020928000611B6
:020929000611B5
:02092A000611B4
:02092B000611B3
:02092C000612B1
:02092D000612B0
:02092E000612AF
:02092F000612AE
:020930000612AD
:020931000613AB
:020932000613AA
:020933000613A9
:020934000613A8
:020935000613A7
:020936000613A6
:020937000614A4
:020938000614A3
:020939000614A2
:02093A000614A1
:02093B000614A0
:02093C0006159E
:02093D0006159D
:02093E0006159C
:02093F0006159B
:0209400006159A
:02094100061599
:02094200061697
:02094300061696
:02094400061695
:02094500061694
:02094600061693
:02094700061791
:02094800061790
:0209490006178F
:02094A0006178E
:02094B0006178D
:02094C0006178C
:02094D0006188A
:02094E00061889
:02094F00061888
:02095000061887
:02095100061886
:02095200061984
:02095300061983
:02095400061982
:02095500061981
:02095600061980
:0209570006197F
:02095800061A7D
:02095900061A7C
:02095A00061A7B
:02095B00061A7A
:02095C00061A79
:02095D00061B77
:02095E00061B76
:02095F00061B75
:02096000061B74
:02096100061B73
:02096200061B72
:02096300061C70
:02096400061C6F
:02096500061C6E
:02096600061C6D
:02096700061C6C
:02096800061D6A
:02096900061D69
:02096A00061D68
:02096B00061D67
:02096C00061D66
:02096D00061D65
:02096E00061E63
:02096F00061E62
:02097000061E61
:02097100061E60
:02097200061E5F
:02097300061F5D
:02097400061F5C
:02097500061F5B
:02097600061F5A
:02097700061F59
:02097800061F58
:02097900062056
:02097A00062055
:02097B00062054
:02097C00062053
:02097D00062052
:02097E00062150
:02097F0006214F
:0209800006214E
:0209810006214D
:0209820006214C
:0209830006214B
:02098400062249
:02098500062248
:02098600062247
:02098700062246
:02098800062245
:02098900062244
:02098A00062342
:02098B00062341
:02098C00062340
:02098D0006233F
:02098E0006233E
:02098F0006243C
:0209900006243B
:0209910006243A
:02099200062439
:02099300062438
:02099400062437
:02099500062535
:02099600062534
:02099700062533
:02099800062532
:02099900062531
:02099A0006262F
:02099B0006262E
:02099C0006262D
:02099D0006262C
:02099E0006262B
:02099F0006262A
:0209A000062728
:0209A100062727
:0209A200062726
:0209A300062725
:0209A400062724
:0209A500062723
:0209A600062821
:0209A700062820
:0209A80006281F
:0209A90006281E
:0209AA0006281D
:0209AB0006291B
:0209AC0006291A
:0209AD00062919
:0209AE00062918
:0209AF00062917
:0209B000062916
:0209B100062A14
:0209B200062A13
:0209B300062A12
:0209B400062A11
:0209B500062A10
:0209B600062A0F
:0209B700062B0D
:0209B800062B0C
:0209B900062B0B
:0209BA00062B0A
:0209BB00062B09
:0209BC00062C07
:0209BD00062C06
:0209BE00062C05
:0209BF00062C04
:0209C000062C03
:0209C100062C02
:0209C200062D00
:0209C300062DFF
:0209C400062DFE
:0209C500062DFD
:0209C600062DFC
:0209C700062DFB
:0209C800062EF9
:0209C900062EF8
:0209CA00062EF7
:0209CB00062EF6
:0209CC00062EF5
:0209CD00062FF3
:0209CE00062FF2
:0209CF00062FF1
:0209D000062FF0
:0209D100062FEF
:0209D200062FEE
:0209D3000630EC
:0209D4000630EB
:0209D5000630EA
:0209D6000630E9
:0209D7000630E8
:0209D8000630E7
:0209D9000631E5
:0209DA000631E4
:0209DB000631E3
:0209DC000631E2
:0209DD000631E1
:0209DE000631E0
:0209DF000632DE
:0209E0000632DD
:0209E1000632DC
:0209E2000632DB
:0209E3000632DA
:0209E4000633D8
:0209E5000633D7
:0209E6000633D6
:0209E7000633D5
:0209E8000633D4
:0209E9000633D3
:0209EA000634D1
:0209EB000634D0
:0209EC000634CF
:0209ED000634CE
:0209EE000634CD
:0209EF000634CC
:0209F0000635CA
:0209F1000635C9
:0209F2000635C8
:0209F3000635C7
:0209F4000635C6
:0209F5000636C4
:0209F6000636C3
:0209F7000636C2
:0209F8000636C1
:0209F9000636C0
:0209FA000636BF
:0209FB000637BD
:0209FC000637BC
:0209FD000637BB
:0209FE000637BA
:0209FF000637B9
:020A00000637B7
:020A01000638B5
:020A02000638B4
:020A03000638B3
:020A04000638B2
:020A05000638B1
:020A06000638B0
:020A07000639AE
:020A08000639AD
:020A09000639AC
:020A0A000639AB
:020A0B000639AA
:020A0C000639A9
:020A0D00063AA7
:020A0E00063AA6
:020A0F00063AA5
:020A1000063AA4
:020A1100063AA3
:020A1200063BA1
:020A1300063BA0
:020A1400063B9F
:020A1500063B9E
:020A1600063B9D
:020A1700063B9C
:020A1800063C9A
:020A1900063C99
:020A1A00063C98
:020A1B00063C97
:020A1C00063C96
:020A1D00063C95
:020A1E00063D93
:020A1F00063D92
:020A2000063D91
:020A2100063D90
:020A2200063D8F
:020A2300063D8E
:020A2400063E8C
:020A2500063E8B
:020A2600063E8A
:020A2700063E89
:020A2800063E88
:020A2900063E87
:020A2A00063F85
:020A2B00063F84
:020A2C00063F83
:020A2D00063F82
:020A2E00063F81
:020A2F00063F80
:020A300006407E
:020A310006407D
:020A320006407C
:020A330006407B
:020A340006407A
:020A3500064178
:020A3600064177
:020A3700064176
:020A3800064175
:020A3900064174
:020A3A00064173
:020A3B00064271
:020A3C00064270
:020A3D0006426F
:020A3E0006426E
:020A3F0006426D
:020A400006426C
:020A410006436A
:020A4200064369
:020A4300064368
:020A4400064367
:020A4500064366
:020A4600064365
:020A4700064463
:020A4800064462
:020A4900064461
:020A4A00064460
:020A4B0006445F
:020A4C0006445E
:020A4D0006455C
:020A4E0006455B
:020A4F0006455A
:020A5000064559
:020A5100064558
:020A5200064557
:020A5300064655
:020A5400064654
:020A5500064653
:020A5600064652
:020A5700064651
:020A5800064650
:020A590006474E
:020A5A0006474D
:020A5B0006474C
:020A5C0006474B
:020A5D0006474A
:020A5E00064749
:020A5F00064847
:020A6000064846
:020A6100064845
:020A6200064844
:020A6300064843
:020A6400064842
:020A6500064940
:020A660006493F
:020A670006493E
:020A680006493D
:020A690006493C
:020A6A0006493B
:020A6B00064A39
:020A6C00064A38
:020A6D00064A37
:020A6E00064A36
:020A6F00064A35
:020A7000064B33
:020A7100064B32
:020A7200064B31
:020A7300064B30
:020A7400064B2F
:020A7500064B2E
:020A7600064C2C
:020A7700064C2B
:020A7800064C2A
:020A7900064C29
:020A7A00064C28
:020A7B00064C27
:020A7C00064D25
:020A7D00064D24
:020A7E00064D23
:020A7F00064D22
:020A8000064D21
:020A8100064D20
:020A8200064E1E
:020A8300064E1D
:020A8400064E1C
:020A8500064E1B
:020A8600064E1A
:020A8700064E19
:020A8800064F17
:020A8900064F16
:020A8A00064F15
:020A8B00064F14
:020A8C00064F13
:020A8D00064F12
:020A8E00065010
:020A8F0006500F
:020A900006500E
:020A910006500D
:020A920006500C
:020A930006500B
:020A9400065109
:020A9500065108
:020A9600065107
:020A9700065106
:020A9800065105
:020A9900065104
:020A9A00065202
:020A9B00065201
:020A9C00065200
:020A9D000652FF
:020A9E000652FE
:020A9F000652FD
:020AA0000653FB
:020AA1000653FA
:020AA2000653F9
:020AA3000653F8
:020AA4000653F7
:020AA5000653F6
:020AA6000653F5
:020AA7000654F3
:020AA8000654F2
:020AA9000654F1
:020AAA000654F0
:020AAB000654EF
:020AAC000654EE
:020AAD000655EC
:020AAE000655EB
:020AAF000655EA
:020AB0000655E9
:020AB1000655E8
:020AB2000655E7
:020AB3000656E5
:020AB4000656E4
:020AB5000656E3
:020AB6000656E2
:020AB7000656E1
:020AB8000656E0
:020AB9000657DE
:020ABA000657DD
:020ABB000657DC
:020ABC000657DB
:020ABD000657DA
:020ABE000657D9
:020ABF000658D7
:020AC0000658D6
:020AC1000658D5
:020AC2000658D4
:020AC3000658D3
:020AC4000658D2
:020AC5000659D0
:020AC6000659CF
:020AC7000659CE
:020AC8000659CD
:020AC9000659CC
:020ACA000659CB
:020ACB00065AC9
:020ACC00065AC8
:020ACD00065AC7
:020ACE00065AC6
:020ACF00065AC5
:020AD000065AC4
:020AD100065BC2
:020AD200065BC1
:020AD300065BC0
:020AD400065BBF
:020AD500065BBE
:020AD600065BBD
:020AD700065CBB
:020AD800065CBA
:020AD900065CB9
:020ADA00065CB8
:020ADB00065CB7
:020ADC00065CB6
:020ADD00065DB4
:020ADE00065DB3
:020ADF00065DB2
:020AE000065DB1
:020AE100065DB0
:020AE200065DAF
:020AE300065DAE
:020AE400065EAC
:020AE500065EAB
:020AE600065EAA
:020AE700065EA9
:020AE800065EA8
:020AE900065EA7
:020AEA00065FA5
:020AEB00065FA4
:020AEC00065FA3
:020AED00065FA2
:020AEE00065FA1
:020AEF00065FA0
:020AF00006609E
:020AF10006609D
:020AF20006609C
:020AF30006609B
:020AF40006609A
:020AF500066099
:020AF600066197
:020AF700066196
:020AF800066195
:020AF900066194
:020AFA00066193
:020AFB00066192
:020AFC00066290
:020AFD0006628F
:020AFE0006628E
:020AFF0006628D
:020B000006628B
:020B010006628A
:020B0200066388
:020B0300066387
:020B0400066386
:020B0500066385
:020B0600066384
:020B0700066383
:020B0800066382
:020B0900066480
:020B0A0006647F
:020B0B0006647E
:020B0C0006647D
:020B0D0006647C
:020B0E0006647B
:020B0F00066579
:020B1000066578
:020B1100066577
:020B1200066576
:020B1300066575
:020B1400066574
:020B1500066672
:020B1600066671
:020B1700066670
:020B180006666F
:020B190006666E
:020B1A0006666D
:020B1B0006676B
:020B1C0006676A
:020B1D00066769
:020B1E00066768
:020B1F00066767
:020B2000066766
:020B2100066765
:020B2200066863
:020B2300066862
:020B2400066861
:020B2500066860
:020B260006685F
:020B270006685E
:020B280006695C
:020B290006695B
:020B2A0006695A
:020B2B00066959
:020B2C00066958
:020B2D00066957
:020B2E00066A55
:020B2F00066A54
:020B3000066A53
:020B3100066A52
:020B3200066A51
:020B3300066A50
:020B3400066A4F
:020B3500066B4D
:020B3600066B4C
:020B3700066B4B
:020B3800066B4A
:020B3900066B49
:020B3A00066B48
:020B3B00066C46
:020B3C00066C45
:020B3D00066C44
:020B3E00066C43
:020B3F00066C42
:020B4000066C41
:020B4100066D3F
:020B4200066D3E
:020B4300066D3D
:020B4400066D3C
:020B4500066D3B
:020B4600066D3A
:020B4700066E38
:020B4800066E37
:020B4900066E36
:020B4A00066E35
:020B4B00066E34
:020B4C00066E33
:020B4D00066E32
:020B4E00066F30
:020B4F00066F2F
:020B5000066F2E
:020B5100066F2D
:020B5200066F2C
:020B5300066F2B
:020B5400067029
:020B5500067028
:020B5600067027
:020B5700067026
:020B5800067025
:020B5900067024
:020B5A00067023
:020B5B00067121
:020B5C00067120
:020B5D0006711F
:020B5E0006711E
:020B5F0006711D
:020B600006711C
:020B610006721A
:020B6200067219
:020B6300067218
:020B6400067217
:020B6500067216
:020B6600067215
:020B6700067313
:020B6800067312
:020B6900067311
:020B6A00067310
:020B6B0006730F
:020B6C0006730E
:020B6D0006730D
:020B6E0006740B
:020B6F0006740A
:020B7000067409
:020B7100067408
:020B7200067407
:020B7300067406
:020B7400067504
:020B7500067503
:020B7600067502
:020B7700067501
:020B7800067500
:020B79000675FF
:020B7A000675FE
:020B7B000676FC
:020B7C000676FB
:020B7D000676FA
:020B7E000676F9
:020B7F000676F8
:020B80000676F7
:020B81000677F5
:020B82000677F4
:020B83000677F3
:020B84000677F2
:020B85000677F1
:020B86000677F0
:020B87000678EE
:020B88000678ED
:020B89000678EC
:020B8A000678EB
:020B8B000678EA
:020B8C000678E9
:020B8D000678E8
:020B8E000679E6
:020B8F000679E5
:020B90000679E4
:020B91000679E3
:020B92000679E2
:020B93000679E1
:020B9400067ADF
:020B9500067ADE
:020B9600067ADD
:020B9700067ADC
:020B9800067ADB
:020B9900067ADA
:020B9A00067AD9
:020B9B00067BD7
:020B9C00067BD6
:020B9D00067BD5
:020B9E00067BD4
:020B9F00067BD3
:020BA000067BD2
:020BA100067CD0
:020BA200067CCF
:020BA300067CCE
:020BA400067CCD
:020BA500067CCC
:020BA600067CCB
:020BA700067CCA
:020BA800067DC8
:020BA900067DC7
:020BAA00067DC6
:020BAB00067DC5
:020BAC00067DC4
:020BAD00067DC3
:020BAE00067EC1
:020BAF00067EC0
:020BB000067EBF
:020BB100067EBE
:020BB200067EBD
:020BB300067EBC
:020BB400067EBB
:020BB500067FB9
:020BB600067FB8
:020BB700067FB7
:020BB800067FB6
:020BB900067FB5
:020BBA00067FB4
:020BBB00067FB3
:020BBC000680B1
:020BBD000680B0
:020BBE000680AF
:020BBF000680AE
:020BC0000680AD
:020BC1000680AC
:020BC2000681AA
:020BC3000681A9
:020BC4000681A8
:020BC5000681A7
:020BC6000681A6
:020BC7000681A5
:020BC8000681A4
:020BC9000682A2
:020BCA000682A1
:020BCB000682A0
:020BCC0006829F
:020BCD0006829E
:020BCE0006829D
:020BCF0006839B
:020BD00006839A
:020BD100068399
:020BD200068398
:020BD300068397
:020BD400068396
:020BD500068395
:020BD600068493
:020BD700068492
:020BD800068491
:020BD900068490
:020BDA0006848F
:020BDB0006848E
:020BDC0006848D
:020BDD0006858B
:020BDE0006858A
:020BDF00068589
:020BE000068588
:020BE100068587
:020BE200068586
:020BE300068684
:020BE400068683
:020BE500068682
:020BE600068681
:020BE700068680
:020BE80006867F
:020BE90006867E
:020BEA0006877C
:020BEB0006877B
:020BEC0006877A
:020BED00068779
:020BEE00068778
:020BEF00068777
:020BF000068875
:020BF100068874
:020BF200068873
:020BF300068872
:020BF400068871
:020BF500068870
:020BF60006886F
:020BF70006896D
:020BF80006896C
:020BF90006896B
:020BFA0006896A
:020BFB00068969
:020BFC00068968
:020BFD00068967
:020BFE00068A65
:020BFF00068A64
:020C0000068A62
:020C0100068A61
:020C0200068A60
:020C0300068A5F
:020C0400068A5E
:020C0500068B5C
:020C0600068B5B
:020C0700068B5A
:020C0800068B59
:020C0900068B58
:020C0A00068B57
:020C0B00068C55
:020C0C00068C54
:020C0D00068C53
:020C0E00068C52
:020C0F00068C51
:020C1000068C50
:020C1100068C4F
:020C1200068D4D
:020C1300068D4C
:020C1400068D4B
:020C1500068D4A
:020C1600068D49
:020C1700068D48
:020C1800068D47
:020C1900068E45
:020C1A00068E44
:020C1B00068E43
:020C1C00068E42
:020C1D00068E41
:020C1E00068E40
:020C1F00068E3F
:020C2000068F3D
:020C2100068F3C
:020C2200068F3B
:020C2300068F3A
:020C2400068F39
:020C2500068F38
:020C2600069036
:020C2700069035
:020C2800069034
:020C2900069033
:020C2A00069032
:020C2B00069031
:020C2C00069030
:020C2D0006912E
:020C2E0006912D
:020C2F0006912C
:020C300006912B
:020C310006912A
:020C3200069129
:020C3300069128
:020C3400069226
:020C3500069225
:020C3600069224
:020C3700069223
:020C3800069222
:020C3900069221
:020C3A00069220
:020C3B0006931E
:020C3C0006931D
:020C3D0006931C
:020C3E0006931B
:020C3F0006931A
:020C4000069319
:020C4100069318
:020C4200069416
:020C4300069415
:020C4400069414
:020C4500069413
:020C4600069412
:020C4700069411
:020C480006950F
:020C490006950E
:020C4A0006950D
:020C4B0006950C
:020C4C0006950B
:020C4D0006950A
:020C4E00069509
:020C4F00069607
:020C5000069606
:020C5100069605
:020C5200069604
:020C5300069603
:020C5400069602
:020C5500069601
:020C56000697FF
:020C57000697FE
:020C58000697FD
:020C59000697FC
:020C5A000697FB
:020C5B000697FA
:020C5C000697F9
:020C5D000698F7
:020C5E000698F6
:020C5F000698F5
:020C60000698F4
:020C61000698F3
:020C62000698F2
:020C63000698F1
:020C64000699EF
:020C65000699EE
:020C66000699ED
:020C67000699EC
:020C68000699EB
:020C69000699EA
:020C6A000699E9
:020C6B00069AE7
:020C6C00069AE6
:020C6D00069AE5
:020C6E00069AE4
:020C6F00069AE3
:020C7000069AE2
:020C7100069AE1
:020C7200069BDF
:020C7300069BDE
:020C7400069BDD
:020C7500069BDC
:020C7600069BDB
:020C7700069BDA
:020C7800069BD9
:020C7900069CD7
:020C7A00069CD6
:020C7B00069CD5
:020C7C00069CD4
:020C7D00069CD3
:020C7E00069CD2
:020C7F00069CD1
:020C8000069DCF
:020C8100069DCE
:020C8200069DCD
:020C8300069DCC
:020C8400069DCB
:020C8500069DCA
:020C8600069DC9
:020C8700069EC7
:020C8800069EC6
:020C8900069EC5
:020C8A00069EC4
:020C8B00069EC3
:020C8C00069EC2
:020C8D00069EC1
:020C8E00069FBF
:020C8F00069FBE
:020C9000069FBD
:020C9100069FBC
:020C9200069FBB
:020C9300069FBA
:020C9400069FB9
:020C950006A0B7
:020C960006A0B6
:020C970006A0B5
:020C980006A0B4
:020C990006A0B3
:020C9A0006A0B2
:020C9B0006A0B1
:020C9C0006A1AF
:020C9D0006A1AE
:020C9E0006A1AD
:020C9F0006A1AC
:020CA00006A1AB
:020CA10006A1AA
:020CA20006A1A9
:020CA30006A2A7
:020CA40006A2A6
:020CA50006A2A5
:020CA60006A2A4
:020CA70006A2A3
:020CA80006A2A2
:020CA90006A2A1
:020CAA0006A39F
:020CAB0006A39E
:020CAC0006A39D
:020CAD0006A39C
:020CAE0006A39B
:020CAF0006A39A
:020CB00006A399
:020CB10006A497
:020CB20006A496
:020CB30006A495
:020CB40006A494
:020CB50006A493
:020CB60006A492
:020CB70006A491
:020CB80006A58F
:020CB90006A58E
:020CBA0006A58D
:020CBB0006A58C
:020CBC0006A58B
:020CBD0006A58A
:020CBE0006A589
:020CBF0006A687
:020CC00006A686
:020CC10006A685
:020CC20006A684
:020CC30006A683
:020CC40006A682
:020CC50006A681
:020CC60006A77F
:020CC70006A77E
:020CC80006A77D
:020CC90006A77C
:020CCA0006A77B
:020CCB0006A77A
:020CCC0006A779
:020CCD0006A877
:020CCE0006A876
:020CCF0006A875
:020CD00006A874
:020CD10006A873
:020CD20006A872
:020CD30006A871
:020CD40006A870
:020CD50006A96E
:020CD60006A96D
:020CD70006A96C
:020CD80006A96B
:020CD90006A96A
:020CDA0006A969
:020CDB0006A968
:020CDC0006AA66
:020CDD0006AA65
:020CDE0006AA64
:020CDF0006AA63
:020CE00006AA62
:020CE10006AA61
:020CE20006AA60
:020CE30006AB5E
:020CE40006AB5D
:020CE50006AB5C
:020CE60006AB5B
:020CE70006AB5A
:020CE80006AB59
:020CE90006AB58
:020CEA0006AC56
:020CEB0006AC55
:020CEC0006AC54
:020CED0006AC53
:020CEE0006AC52
:020CEF0006AC51
:020CF00006AC50
:020CF10006AD4E
:020CF20006AD4D
:020CF30006AD4C
:020CF40006AD4B
:020CF50006AD4A
:020CF60006AD49
:020CF70006AD48
:020CF80006AD47
:020CF90006AE45
:020CFA0006AE44
:020CFB0006AE43
:020CFC0006AE42
:020CFD0006AE41
:020CFE0006AE40
:020CFF0006AE3F
:020D000006AF3C
:020D010006AF3B
:020D020006AF3A
:020D030006AF39
:020D040006AF38
:020D050006AF37
:020D060006AF36
:020D070006B034
:020D080006B033
:020D090006B032
:020D0A0006B031
:020D0B0006B030
:020D0C0006B02F
:020D0D0006B02E
:020D0E0006B02D
:020D0F0006B12B
:020D100006B12A
:020D110006B129
:020D120006B128
:020D130006B127
:020D140006B126
:020D150006B125
:020D160006B223
:020D170006B222
:020D180006B221
:020D190006B220
:020D1A0006B21F
:020D1B0006B21E
:020D1C0006B21D
:020D1D0006B31B
:020D1E0006B31A
:020D1F0006B319
:020D200006B318
:020D210006B317
:020D220006B316
:020D230006B315
:020D240006B314
:020D250006B412
:020D260006B411
:020D270006B410
:020D280006B40F
:020D290006B40E
:020D2A0006B40D
:020D2B0006B40C
:020D2C0006B50A
:020D2D0006B509
:020D2E0006B508
:020D2F0006B507
:020D300006B506
:020D310006B505
:020D320006B504
:020D330006B602
:020D340006B601
:020D350006B600
:020D360006B6FF
:020D370006B6FE
:020D380006B6FD
:020D390006B6FC
:020D3A0006B6FB
:020D3B0006B7F9
:020D3C0006B7F8
:020D3D0006B7F7
:020D3E0006B7F6
:020D3F0006B7F5
:020D400006B7F4
:020D410006B7F3
:020D420006B8F1
:020D430006B8F0
:020D440006B8EF
:020D450006B8EE
:020D460006B8ED
:020D470006B8EC
:020D480006B8EB
:020D490006B8EA
:020D4A0006B9E8
:020D4B0006B9E7
:020D4C0006B9E6
:020D4D0006B9E5
:020D4E0006B9E4
:020D4F0006B9E3
:020D500006B9E2
:020D510006BAE0
:020D520006BADF
:020D530006BADE
:020D540006BADD
:020D550006BADC
:020D560006BADB
:020D570006BADA
:020D580006BAD9
:020D590006BBD7
:020D5A0006BBD6
:020D5B0006BBD5
:020D5C0006BBD4
:020D5D0006BBD3
:020D5E0006BBD2
:020D5F0006BBD1
:020D600006BCCF
:020D610006BCCE
:020D620006BCCD
:020D630006BCCC
:020D640006BCCB
:020D650006BCCA
:020D660006BCC9
:020D670006BCC8
:020D680006BDC6
:020D690006BDC5
:020D6A0006BDC4
:020D6B0006BDC3
:020D6C0006BDC2
:020D6D0006BDC1
:020D6E0006BDC0
:020D6F0006BEBE
:020D700006BEBD
:020D710006BEBC
:020D720006BEBB
:020D730006BEBA
:020D740006BEB9
:020D750006BEB8
:020D760006BEB7
:020D770006BFB5
:020D780006BFB4
:020D790006BFB3
:020D7A0006BFB2
:020D7B0006BFB1
:020D7C0006BFB0
:020D7D0006BFAF
:020D7E0006C0AD
:020D7F0006C0AC
:020D800006C0AB
:020D810006C0AA
:020D820006C0A9
:020D830006C0A8
:020D840006C0A7
:020D850006C0A6
:020D860006C1A4
:020D870006C1A3
:020D880006C1A2
:020D890006C1A1
:020D8A0006C1A0
:020D8B0006C19F
:020D8C0006C19E
:020D8D0006C29C
:020D8E0006C29B
:020D8F0006C29A
:020D900006C299
:020D910006C298
:020D920006C297
:020D930006C296
:020D940006C295
:020D950006C393
:020D960006C392
:020D970006C391
:020D980006C390
:020D990006C38F
:020D9A0006C38E
:020D9B0006C38D
:020D9C0006C38C
:020D9D0006C48A
:020D9E0006C489
:020D9F0006C488
:020DA00006C487
:020DA10006C486
:020DA20006C485
:020DA30006C484
:020DA40006C582
:020DA50006C581
:020DA60006C580
:020DA70006C57F
:020DA80006C57E
:020DA90006C57D
:020DAA0006C57C
:020DAB0006C57B
:020DAC0006C679
:020DAD0006C678
:020DAE0006C677
:020DAF0006C676
:020DB00006C675
:020DB10006C674
:020DB20006C673
:020DB30006C672
:020DB40006C770
:020DB50006C76F
:020DB60006C76E
:020DB70006C76D
:020DB80006C76C
:020DB90006C76B
:020DBA0006C76A
:020DBB0006C769
:020DBC0006C867
:020DBD0006C866
:020DBE0006C865
:020DBF0006C864
:020DC00006C863
:020DC10006C862
:020DC20006C861
:020DC30006C95F
:020DC40006C95E
:020DC50006C95D
:020DC60006C95C
:020DC70006C95B
:020DC80006C95A
:020DC90006C959
:020DCA0006C958
:020DCB0006CA56
:020DCC0006CA55
:020DCD0006CA54
:020DCE0006CA53
:020DCF0006CA52
:020DD00006CA51
:020DD10006CA50
:020DD20006CA4F
:020DD30006CB4D
:020DD40006CB4C
:020DD50006CB4B
:020DD60006CB4A
:020DD70006CB49
:020DD80006CB48
:020DD90006CB47
:020DDA0006CB46
:020DDB0006CC44
:020DDC0006CC43
:020DDD0006CC42
:020DDE0006CC41
:020DDF0006CC40
:020DE00006CC3F
:020DE10006CC3E
:020DE20006CC3D
:020DE30006CD3B
:020DE40006CD3A
:020DE50006CD39
:020DE60006CD38
:020DE70006CD37
:020DE80006CD36
:020DE90006CD35
:020DEA0006CE33
:020DEB0006CE32
:020DEC0006CE31
:020DED0006CE30
:020DEE0006CE2F
:020DEF0006CE2E
:020DF00006CE2D
:020DF10006CE2C
:020DF20006CF2A
:020DF30006CF29
:020DF40006CF28
:020DF50006CF27
:020DF60006CF26
:020DF70006CF25
:020DF80006CF24
:020DF90006CF23
:020DFA0006D021
:020DFB0006D020
:020DFC0006D01F
:020DFD0006D01E
:020DFE0006D01D
:020DFF0006D01C
:020E000006D01A
:020E010006D019
:020E020006D117
:020E030006D116
:020E040006D115
:020E050006D114
:020E060006D113
:020E070006D112
:020E080006D111
:020E090006D110
:020E0A0006D20E
:020E0B0006D20D
:020E0C0006D20C
:020E0D0006D20B
:020E0E0006D20A
:020E0F0006D209
:020E100006D208
:020E110006D207
:020E120006D305
:020E130006D304
:020E140006D303
:020E150006D302
:020E160006D301
:020E170006D300
:020E180006D3FF
:020E190006D3FE
:020E1A0006D4FC
:020E1B0006D4FB
:020E1C0006D4FA
:020E1D0006D4F9
:020E1E0006D4F8
:020E1F0006D4F7
:020E200006D4F6
:020E210006D4F5
:020E220006D5F3
:020E230006D5F2
:020E240006D5F1
:020E250006D5F0
:020E260006D5EF
:020E270006D5EE
:020E280006D5ED
:020E290006D5EC
:020E2A0006D6EA
:020E2B0006D6E9
:020E2C0006D6E8
:020E2D0006D6E7
:020E2E0006D6E6
:020E2F0006D6E5
:020E300006D6E4
:020E310006D6E3
:020E320006D7E1
:020E330006D7E0
:020E340006D7DF
:020E350006D7DE
:020E360006D7DD
:020E370006D7DC
:020E380006D7DB
:020E390006D7DA
:020E3A0006D8D8
:020E3B0006D8D7
:020E3C0006D8D6
:020E3D0006D8D5
:020E3E0006D8D4
:020E3F0006D8D3
:020E400006D8D2
:020E410006D8D1
:020E420006D9CF
:020E430006D9CE
:020E440006D9CD
:020E450006D9CC
:020E460006D9CB
:020E470006D9CA
:020E480006D9C9
:020E490006D9C8
:020E4A0006DAC6
:020E4B0006DAC5
:020E4C0006DAC4
:020E4D0006DAC3
:020E4E0006DAC2
:020E4F0006DAC1
:020E500006DAC0
:020E510006DABF
:020E520006DABE
:020E530006DBBC
:020E540006DBBB
:020E550006DBBA
:020E560006DBB9
:020E570006DBB8
:020E580006DBB7
:020E590006DBB6
:020E5A0006DBB5
:020E5B0006DCB3
:020E5C0006DCB2
:020E5D0006DCB1
:020E5E0006DCB0
:020E5F0006DCAF
:020E600006DCAE
:020E610006DCAD
:020E620006DCAC
:020E630006DDAA
:020E640006DDA9
:020E650006DDA8
:020E660006DDA7
:020E670006DDA6
:020E680006DDA5
:020E690006DDA4
:020E6A0006DDA3
:020E6B0006DEA1
:020E6C0006DEA0
:020E6D0006DE9F
:020E6E0006DE9E
:020E6F0006DE9D
:020E700006DE9C
:020E710006DE9B
:020E720006DE9A
:020E730006DF98
:020E740006DF97
:020E750006DF96
:020E760006DF95
:020E770006DF94
:020E780006DF93
:020E790006DF92
:020E7A0006DF91
:020E7B0006DF90
:020E7C0006E08E
:020E7D0006E08D
:020E7E0006E08C
:020E7F0006E08B
:020E800006E08A
:020E810006E089
:020E820006E088
:020E830006E087
:020E840006E185
:020E850006E184
:020E860006E183
:020E870006E182
:020E880006E181
:020E890006E180
:020E8A0006E17F
:020E8B0006E17E
:020E8C0006E27C
:020E8D0006E27B
:020E8E0006E27A
:020E8F0006E279
:020E900006E278
:020E910006E277
:020E920006E276
:020E930006E275
:020E940006E274
:020E950006E372
:020E960006E371
:020E970006E370
:020E980006E36F
:020E990006E36E
:020E9A0006E36D
:020E9B0006E36C
:020E9C0006E36B
:020E9D0006E469
:020E9E0006E468
:020E9F0006E467
:020EA00006E466
:020EA10006E465
:020EA20006E464
:020EA30006E463
:020EA40006E462
:020EA50006E560
:020EA60006E55F
:020EA70006E55E
:020EA80006E55D
:020EA90006E55C
:020EAA0006E55B
:020EAB0006E55A
:020EAC0006E559
:020EAD0006E558
:020EAE0006E656
:020EAF0006E655
:020EB00006E654
:020EB10006E653
:020EB20006E652
:020EB30006E651
:020EB40006E650
:020EB50006E64F
:020EB60006E74D
:020EB70006E74C
:020EB80006E74B
:020EB90006E74A
:020EBA0006E749
:020EBB0006E748
:020EBC0006E747
:020EBD0006E746
:020EBE0006E745
:020EBF0006E843
:020EC00006E842
:020EC10006E841
:020EC20006E840
:020EC30006E83F
:020EC40006E83E
:020EC50006E83D
:020EC60006E83C
:020EC70006E93A
:020EC80006E939
:020EC90006E938
:020ECA0006E937
:020ECB0006E936
:020ECC0006E935
:020ECD0006E934
:020ECE0006E933
:020ECF0006E932
:020ED00006EA30
:020ED10006EA2F
:020ED20006EA2E
:020ED30006EA2D
:020ED40006EA2C
:020ED50006EA2B
:020ED60006EA2A
:020ED70006EA29
:020ED80006EB27
:020ED90006EB26
:020EDA0006EB25
:020EDB0006EB24
:020EDC0006EB23
:020EDD0006EB22
:020EDE0006EB21
:020EDF0006EB20
:020EE00006EB1F
:020EE10006EC1D
:020EE20006EC1C
:020EE30006EC1B
:020EE40006EC1A
:020EE50006EC19
:020EE60006EC18
:020EE70006EC17
:020EE80006EC16
:020EE90006ED14
:020EEA0006ED13
:020EEB0006ED12
:020EEC0006ED11
:020EED0006ED10
:020EEE0006ED0F
:020EEF0006ED0E
:020EF00006ED0D
:020EF10006ED0C
:020EF20006EE0A
:020EF30006EE09
:020EF40006EE08
:020EF50006EE07
:020EF60006EE06
:020EF70006EE05
:020EF80006EE04
:020EF90006EE03
:020EFA0006EE02
:020EFB0006EF00
:020EFC0006EFFF
:020EFD0006EFFE
:020EFE0006EFFD
:020EFF0006EFFC
:020F000006EFFA
:020F010006EFF9
:020F020006EFF8
:020F030006F0F6
:020F040006F0F5
:020F050006F0F4
:020F060006F0F3
:020F070006F0F2
:020F080006F0F1
:020F090006F0F0
:020F0A0006F0EF
:020F0B0006F0EE
:020F0C0006F1EC
:020F0D0006F1EB
:020F0E0006F1EA
:020F0F0006F1E9
:020F100006F1E8
:020F110006F1E7
:020F120006F1E6
:020F130006F1E5
:020F140006F1E4
:020F150006F2E2
:020F160006F2E1
:020F170006F2E0
:020F180006F2DF
:020F190006F2DE
:020F1A0006F2DD
:020F1B0006F2DC
:020F1C0006F2DB
:020F1D0006F3D9
:020F1E0006F3D8
:020F1F0006F3D7
:020F200006F3D6
:020F210006F3D5
:020F220006F3D4
:020F230006F3D3
:020F240006F3D2
:020F250006F3D1
:020F260006F4CF
:020F270006F4CE
:020F280006F4CD
:020F290006F4CC
:020F2A0006F4CB
:020F2B0006F4CA
:020F2C0006F4C9
:020F2D0006F4C8
:020F2E0006F4C7
:020F2F0006F5C5
:020F300006F5C4
:020F310006F5C3
:020F320006F5C2
:020F330006F5C1
:020F340006F5C0
:020F350006F5BF
:020F360006F5BE
:020F370006F5BD
:020F380006F6BB
:020F390006F6BA
:020F3A0006F6B9
:020F3B0006F6B8
:020F3C0006F6B7
:020F3D0006F6B6
:020F3E0006F6B5
:020F3F0006F6B4
:020F400006F6B3
:020F410006F7B1
:020F420006F7B0
:020F430006F7AF
:020F440006F7AE
:020F450006F7AD
:020F460006F7AC
:020F470006F7AB
:020F480006F7AA
:020F490006F7A9
:020F4A0006F8A7
:020F4B0006F8A6
:020F4C0006F8A5
:020F4D0006F8A4
:020F4E0006F8A3
:020F4F0006F8A2
:020F500006F8A1
:020F510006F8A0
:020F520006F99E
:020F530006F99D
:020F540006F99C
:020F550006F99B
:020F560006F99A
:020F570006F999
:020F580006F998
:020F590006F997
:020F5A0006F996
:020F5B0006FA94
:020F5C0006FA93
:020F5D0006FA92
:020F5E0006FA91
:020F5F0006FA90
:020F600006FA8F
:020F610006FA8E
:020F620006FA8D
:020F630006FA8C
:020F640006FB8A
:020F650006FB89
:020F660006FB88
:020F670006FB87
:020F680006FB86
:020F690006FB85
:020F6A0006FB84
:020F6B0006FB83
:020F6C0006FB82
:020F6D0006FC80
:020F6E0006FC7F
:020F6F0006FC7E
:020F700006FC7D
:020F710006FC7C
:020F720006FC7B
:020F730006FC7A
:020F740006FC79
:020F750006FC78
:020F760006FD76
:020F770006FD75
:020F780006FD74
:020F790006FD73
:020F7A0006FD72
:020F7B0006FD71
:020F7C0006FD70
:020F7D0006FD6F
:020F7E0006FD6E
:020F7F0006FE6C
:020F800006FE6B
:020F810006FE6A
:020F820006FE69
:020F830006FE68
:020F840006FE67
:020F850006FE66
:020F860006FE65
:020F870006FE64
:020F880006FE63
:020F890006FF61
:020F8A0006FF60
:020F8B0006FF5F
:020F8C0006FF5E
:020F8D0006FF5D
:020F8E0006FF5C
:020F8F0006FF5B
:020F900006FF5A
:020F910006FF59
:020F9200070056
:020F9300070055
:020F9400070054
:020F9500070053
:020F9600070052
:020F9700070051
:020F9800070050
:020F990007004F
:020F9A0007004E
:020F9B0007014C
:020F9C0007014B
:020F9D0007014A
:020F9E00070149
:020F9F00070148
