:020000001000EE
:020001001000ED
:020002001000EC
:020003001000EB
:020004001000EA
:020005001001E8
:020006001001E7
:020007001001E6
:020008001001E5
:020009001002E3
:02000A001002E2
:02000B001002E1
:02000C001002E0
:02000D001003DE
:02000E001003DD
:02000F001003DC
:020010001003DB
:020011001004D9
:020012001004D8
:020013001004D7
:020014001004D6
:020015001005D4
:020016001005D3
:020017001005D2
:020018001005D1
:020019001006CF
:02001A001006CE
:02001B001006CD
:02001C001006CC
:02001D001007CA
:02001E001007C9
:02001F001007C8
:020020001007C7
:020021001008C5
:020022001008C4
:020023001008C3
:020024001008C2
:020025001009C0
:020026001009BF
:020027001009BE
:020028001009BD
:02002900100ABB
:02002A00100ABA
:02002B00100AB9
:02002C00100AB8
:02002D00100BB6
:02002E00100BB5
:02002F00100BB4
:02003000100BB3
:02003100100CB1
:02003200100CB0
:02003300100CAF
:02003400100CAE
:02003500100DAC
:02003600100DAB
:02003700100DAA
:02003800100DA9
:02003900100EA7
:02003A00100EA6
:02003B00100EA5
:02003C00100EA4
:02003D00100FA2
:02003E00100FA1
:02003F00100FA0
:02004000100F9F
:0200410010109D
:0200420010109C
:0200430010109B
:0200440010109A
:02004500101198
:02004600101197
:02004700101196
:02004800101195
:02004900101293
:02004A00101292
:02004B00101291
:02004C00101290
:02004D0010138E
:02004E0010138D
:02004F0010138C
:0200500010138B
:02005100101489
:02005200101488
:02005300101487
:02005400101486
:02005500101584
:02005600101583
:02005700101582
:02005800101581
:0200590010167F
:02005A0010167E
:02005B0010167D
:02005C0010167C
:02005D0010177A
:02005E00101779
:02005F00101778
:02006000101777
:02006100101875
:02006200101874
:02006300101873
:02006400101872
:02006500101970
:0200660010196F
:0200670010196E
:0200680010196D
:02006900101A6B
:02006A00101A6A
:02006B00101A69
:02006C00101A68
:02006D00101B66
:02006E00101B65
:02006F00101B64
:02007000101B63
:02007100101C61
:02007200101C60
:02007300101C5F
:02007400101C5E
:02007500101D5C
:02007600101D5B
:02007700101D5A
:02007800101D59
:02007900101E57
:02007A00101E56
:02007B00101E55
:02007C00101E54
:02007D00101F52
:02007E00101F51
:02007F00101F50
:02008000101F4F
:0200810010204D
:0200820010204C
:0200830010204B
:0200840010204A
:02008500102148
:02008600102147
:02008700102146
:02008800102145
:02008900102243
:02008A00102242
:02008B00102241
:02008C00102240
:02008D0010233E
:02008E0010233D
:02008F0010233C
:0200900010233B
:02009100102439
:02009200102438
:02009300102437
:02009400102436
:02009500102534
:02009600102533
:02009700102532
:02009800102531
:0200990010262F
:02009A0010262E
:02009B0010262D
:02009C0010262C
:02009D0010272A
:02009E00102729
:02009F00102728
:0200A000102727
:0200A100102825
:0200A200102824
:0200A300102823
:0200A400102822
:0200A500102920
:0200A60010291F
:0200A70010291E
:0200A80010291D
:0200A900102A1B
:0200AA00102A1A
:0200AB00102A19
:0200AC00102A18
:0200AD00102B16
:0200AE00102B15
:0200AF00102B14
:0200B000102B13
:0200B100102C11
:0200B200102C10
:0200B300102C0F
:0200B400102C0E
:0200B500102D0C
:0200B600102D0B
:0200B700102D0A
:0200B800102D09
:0200B900102E07
:0200BA00102E06
:0200BB00102E05
:0200BC00102E04
:0200BD00102F02
:0200BE00102F01
:0200BF00102F00
:0200C000102FFF
:0200C1001030FD
:0200C2001030FC
:0200C3001030FB
:0200C4001030FA
:0200C5001031F8
:0200C6001031F7
:0200C7001031F6
:0200C8001031F5
:0200C9001032F3
:0200CA001032F2
:0200CB001032F1
:0200CC001032F0
:0200CD001033EE
:0200CE001033ED
:0200CF001033EC
:0200D0001033EB
:0200D1001034E9
:0200D2001034E8
:0200D3001034E7
:0200D4001034E6
:0200D5001035E4
:0200D6001035E3
:0200D7001035E2
:0200D8001035E1
:0200D9001036DF
:0200DA001036DE
:0200DB001036DD
:0200DC001036DC
:0200DD001037DA
:0200DE001037D9
:0200DF001037D8
:0200E0001037D7
:0200E1001038D5
:0200E2001038D4
:0200E3001038D3
:0200E4001038D2
:0200E5001039D0
:0200E6001039CF
:0200E7001039CE
:0200E8001039CD
:0200E900103ACB
:0200EA00103ACA
:0200EB00103AC9
:0200EC00103AC8
:0200ED00103BC6
:0200EE00103BC5
:0200EF00103BC4
:0200F000103BC3
:0200F100103CC1
:0200F200103CC0
:0200F300103CBF
:0200F400103CBE
:0200F500103DBC
:0200F600103DBB
:0200F700103DBA
:0200F800103DB9
:0200F900103EB7
:0200FA00103EB6
:0200FB00103EB5
:0200FC00103EB4
:0200FD00103FB2
:0200FE00103FB1
:0200FF00103FB0
:02010000103FAE
:020101001040AC
:020102001040AB
:020103001040AA
:020104001040A9
:020105001041A7
:020106001041A6
:020107001041A5
:020108001041A4
:020109001042A2
:02010A001042A1
:02010B001042A0
:02010C0010429F
:02010D0010439D
:02010E0010439C
:02010F0010439B
:0201100010439A
:02011100104498
:02011200104497
:02011300104496
:02011400104495
:02011500104593
:02011600104592
:02011700104591
:02011800104590
:0201190010468E
:02011A0010468D
:02011B0010468C
:02011C0010468B
:02011D00104789
:02011E00104788
:02011F00104787
:02012000104786
:02012100104884
:02012200104883
:02012300104882
:02012400104881
:0201250010497F
:0201260010497E
:0201270010497D
:0201280010497C
:02012900104A7A
:02012A00104A79
:02012B00104A78
:02012C00104A77
:02012D00104B75
:02012E00104B74
:02012F00104B73
:02013000104B72
:02013100104C70
:02013200104C6F
:02013300104C6E
:02013400104C6D
:02013500104D6B
:02013600104D6A
:02013700104D69
:02013800104D68
:02013900104E66
:02013A00104E65
:02013B00104E64
:02013C00104E63
:02013D00104F61
:02013E00104F60
:02013F00104F5F
:02014000104F5E
:0201410010505C
:0201420010505B
:0201430010505A
:02014400105059
:02014500105157
:02014600105156
:02014700105155
:02014800105154
:02014900105252
:02014A00105251
:02014B00105250
:02014C0010524F
:02014D0010534D
:02014E0010534C
:02014F0010534B
:0201500010534A
:02015100105448
:02015200105447
:02015300105446
:02015400105445
:02015500105543
:02015600105542
:02015700105541
:02015800105540
:0201590010563E
:02015A0010563D
:02015B0010563C
:02015C0010563B
:02015D00105739
:02015E00105738
:02015F00105737
:02016000105736
:02016100105834
:02016200105833
:02016300105832
:02016400105831
:0201650010592F
:0201660010592E
:0201670010592D
:0201680010592C
:02016900105A2A
:02016A00105A29
:02016B00105A28
:02016C00105A27
:02016D00105B25
:02016E00105B24
:02016F00105B23
:02017000105B22
:02017100105C20
:02017200105C1F
:02017300105C1E
:02017400105C1D
:02017500105D1B
:02017600105D1A
:02017700105D19
:02017800105D18
:02017900105E16
:02017A00105E15
:02017B00105E14
:02017C00105E13
:02017D00105F11
:02017E00105F10
:02017F00105F0F
:02018000105F0E
:0201810010600C
:0201820010600B
:0201830010600A
:02018400106009
:02018500106107
:02018600106106
:02018700106105
:02018800106104
:02018900106202
:02018A00106201
:02018B00106200
:02018C001062FF
:02018D001063FD
:02018E001063FC
:02018F001063FB
:020190001063FA
:020191001064F8
:020192001064F7
:020193001064F6
:020194001064F5
:020195001065F3
:020196001065F2
:020197001065F1
:020198001065F0
:020199001066EE
:02019A001066ED
:02019B001066EC
:02019C001066EB
:02019D001067E9
:02019E001067E8
:02019F001067E7
:0201A0001067E6
:0201A1001068E4
:0201A2001068E3
:0201A3001068E2
:0201A4001068E1
:0201A5001069DF
:0201A6001069DE
:0201A7001069DD
:0201A8001069DC
:0201A900106ADA
:0201AA00106AD9
:0201AB00106AD8
:0201AC00106AD7
:0201AD00106BD5
:0201AE00106BD4
:0201AF00106BD3
:0201B000106BD2
:0201B100106CD0
:0201B200106CCF
:0201B300106CCE
:0201B400106CCD
:0201B500106DCB
:0201B600106DCA
:0201B700106DC9
:0201B800106DC8
:0201B900106EC6
:0201BA00106EC5
:0201BB00106EC4
:0201BC00106EC3
:0201BD00106FC1
:0201BE00106FC0
:0201BF00106FBF
:0201C000106FBE
:0201C1001070BC
:0201C2001070BB
:0201C3001070BA
:0201C4001070B9
:0201C5001071B7
:0201C6001071B6
:0201C7001071B5
:0201C8001071B4
:0201C9001072B2
:0201CA001072B1
:0201CB001072B0
:0201CC001072AF
:0201CD001073AD
:0201CE001073AC
:0201CF001073AB
:0201D0001073AA
:0201D1001074A8
:0201D2001074A7
:0201D3001074A6
:0201D4001074A5
:0201D5001075A3
:0201D6001075A2
:0201D7001075A1
:0201D8001075A0
:0201D90010769E
:0201DA0010769D
:0201DB0010769C
:0201DC0010769B
:0201DD00107799
:0201DE00107798
:0201DF00107797
:0201E000107796
:0201E100107894
:0201E200107893
:0201E300107892
:0201E400107891
:0201E50010798F
:0201E60010798E
:0201E70010798D
:0201E80010798C
:0201E900107A8A
:0201EA00107A89
:0201EB00107A88
:0201EC00107A87
:0201ED00107B85
:0201EE00107B84
:0201EF00107B83
:0201F000107B82
:0201F100107C80
:0201F200107C7F
:0201F300107C7E
:0201F400107C7D
:0201F500107D7B
:0201F600107D7A
:0201F700107D79
:0201F800107D78
:0201F900107E76
:0201FA00107E75
:0201FB00107E74
:0201FC00107E73
:0201FD00107F71
:0201FE00107F70
:0201FF00107F6F
:02020000107F6D
:0202010010806B
:0202020010806A
:02020300108069
:02020400108068
:02020500108166
:02020600108165
:02020700108164
:02020800108163
:02020900108261
:02020A00108260
:02020B0010825F
:02020C0010825E
:02020D0010835C
:02020E0010835B
:02020F0010835A
:02021000108359
:02021100108457
:02021200108456
:02021300108455
:02021400108454
:02021500108552
:02021600108551
:02021700108550
:0202180010854F
:0202190010864D
:02021A0010864C
:02021B0010864B
:02021C0010864A
:02021D00108748
:02021E00108747
:02021F00108746
:02022000108745
:02022100108843
:02022200108842
:02022300108841
:02022400108840
:0202250010893E
:0202260010893D
:0202270010893C
:0202280010893B
:02022900108A39
:02022A00108A38
:02022B00108A37
:02022C00108A36
:02022D00108B34
:02022E00108B33
:02022F00108B32
:02023000108B31
:02023100108C2F
:02023200108C2E
:02023300108C2D
:02023400108C2C
:02023500108D2A
:02023600108D29
:02023700108D28
:02023800108D27
:02023900108E25
:02023A00108E24
:02023B00108E23
:02023C00108E22
:02023D00108F20
:02023E00108F1F
:02023F00108F1E
:02024000108F1D
:0202410010901B
:0202420010901A
:02024300109019
:02024400109018
:02024500109116
:02024600109115
:02024700109114
:02024800109113
:02024900109211
:02024A00109210
:02024B0010920F
:02024C0010920E
:02024D0010930C
:02024E0010930B
:02024F0010930A
:02025000109309
:02025100109407
:02025200109406
:02025300109405
:02025400109404
:02025500109502
:02025600109501
:02025700109500
:020258001095FF
:020259001096FD
:02025A001096FC
:02025B001096FB
:02025C001096FA
:02025D001097F8
:02025E001097F7
:02025F001097F6
:020260001097F5
:020261001098F3
:020262001098F2
:020263001098F1
:020264001098F0
:020265001099EE
:020266001099ED
:020267001099EC
:020268001099EB
:02026900109AE9
:02026A00109AE8
:02026B00109AE7
:02026C00109AE6
:02026D00109BE4
:02026E00109BE3
:02026F00109BE2
:02027000109BE1
:02027100109CDF
:02027200109CDE
:02027300109CDD
:02027400109CDC
:02027500109DDA
:02027600109DD9
:02027700109DD8
:02027800109DD7
:02027900109ED5
:02027A00109ED4
:02027B00109ED3
:02027C00109ED2
:02027D00109FD0
:02027E00109FCF
:02027F00109FCE
:02028000109FCD
:0202810010A0CB
:0202820010A0CA
:0202830010A0C9
:0202840010A0C8
:0202850010A1C6
:0202860010A1C5
:0202870010A1C4
:0202880010A1C3
:0202890010A2C1
:02028A0010A2C0
:02028B0010A2BF
:02028C0010A2BE
:02028D0010A3BC
:02028E0010A3BB
:02028F0010A3BA
:0202900010A3B9
:0202910010A4B7
:0202920010A4B6
:0202930010A4B5
:0202940010A4B4
:0202950010A5B2
:0202960010A5B1
:0202970010A5B0
:0202980010A5AF
:0202990010A6AD
:02029A0010A6AC
:02029B0010A6AB
:02029C0010A6AA
:02029D0010A7A8
:02029E0010A7A7
:02029F0010A7A6
:0202A00010A7A5
:0202A10010A8A3
:0202A20010A8A2
:0202A30010A8A1
:0202A40010A8A0
:0202A50010A99E
:0202A60010A99D
:0202A70010A99C
:0202A80010A99B
:0202A90010AA99
:0202AA0010AA98
:0202AB0010AA97
:0202AC0010AA96
:0202AD0010AB94
:0202AE0010AB93
:0202AF0010AB92
:0202B00010AB91
:0202B10010AC8F
:0202B20010AC8E
:0202B30010AC8D
:0202B40010AC8C
:0202B50010AD8A
:0202B60010AD89
:0202B70010AD88
:0202B80010AD87
:0202B90010AE85
:0202BA0010AE84
:0202BB0010AE83
:0202BC0010AE82
:0202BD0010AF80
:0202BE0010AF7F
:0202BF0010AF7E
:0202C00010AF7D
:0202C10010B07B
:0202C20010B07A
:0202C30010B079
:0202C40010B078
:0202C50010B176
:0202C60010B175
:0202C70010B174
:0202C80010B173
:0202C90010B271
:0202CA0010B270
:0202CB0010B26F
:0202CC0010B26E
:0202CD0010B36C
:0202CE0010B36B
:0202CF0010B36A
:0202D00010B369
:0202D10010B467
:0202D20010B466
:0202D30010B465
:0202D40010B464
:0202D50010B562
:0202D60010B561
:0202D70010B560
:0202D80010B55F
:0202D90010B65D
:0202DA0010B65C
:0202DB0010B65B
:0202DC0010B65A
:0202DD0010B758
:0202DE0010B757
:0202DF0010B756
:0202E00010B755
:0202E10010B853
:0202E20010B852
:0202E30010B851
:0202E40010B850
:0202E50010B94E
:0202E60010B94D
:0202E70010B94C
:0202E80010B94B
:0202E90010BA49
:0202EA0010BA48
:0202EB0010BA47
:0202EC0010BA46
:0202ED0010BB44
:0202EE0010BB43
:0202EF0010BB42
:0202F00010BB41
:0202F10010BC3F
:0202F20010BC3E
:0202F30010BC3D
:0202F40010BC3C
:0202F50010BD3A
:0202F60010BD39
:0202F70010BD38
:0202F80010BD37
:0202F90010BE35
:0202FA0010BE34
:0202FB0010BE33
:0202FC0010BE32
:0202FD0010BF30
:0202FE0010BF2F
:0202FF0010BF2E
:0203000010BF2C
:0203010010C02A
:0203020010C029
:0203030010C028
:0203040010C027
:0203050010C125
:0203060010C124
:0203070010C123
:0203080010C122
:0203090010C220
:02030A0010C21F
:02030B0010C21E
:02030C0010C21D
:02030D0010C31B
:02030E0010C31A
:02030F0010C319
:0203100010C318
:0203110010C416
:0203120010C415
:0203130010C414
:0203140010C413
:0203150010C511
:0203160010C510
:0203170010C50F
:0203180010C50E
:0203190010C60C
:02031A0010C60B
:02031B0010C60A
:02031C0010C609
:02031D0010C707
:02031E0010C706
:02031F0010C705
:0203200010C704
:0203210010C802
:0203220010C801
:0203230010C800
:0203240010C8FF
:0203250010C9FD
:0203260010C9FC
:0203270010C9FB
:0203280010C9FA
:0203290010CAF8
:02032A0010CAF7
:02032B0010CAF6
:02032C0010CAF5
:02032D0010CBF3
:02032E0010CBF2
:02032F0010CBF1
:0203300010CBF0
:0203310010CCEE
:0203320010CCED
:0203330010CCEC
:0203340010CCEB
:0203350010CDE9
:0203360010CDE8
:0203370010CDE7
:0203380010CDE6
:0203390010CEE4
:02033A0010CEE3
:02033B0010CEE2
:02033C0010CEE1
:02033D0010CFDF
:02033E0010CFDE
:02033F0010CFDD
:0203400010CFDC
:0203410010D0DA
:0203420010D0D9
:0203430010D0D8
:0203440010D0D7
:0203450010D1D5
:0203460010D1D4
:0203470010D1D3
:0203480010D1D2
:0203490010D2D0
:02034A0010D2CF
:02034B0010D2CE
:02034C0010D2CD
:02034D0010D3CB
:02034E0010D3CA
:02034F0010D3C9
:0203500010D3C8
:0203510010D4C6
:0203520010D4C5
:0203530010D4C4
:0203540010D4C3
:0203550010D5C1
:0203560010D5C0
:0203570010D5BF
:0203580010D5BE
:0203590010D6BC
:02035A0010D6BB
:02035B0010D6BA
:02035C0010D6B9
:02035D0010D7B7
:02035E0010D7B6
:02035F0010D7B5
:0203600010D7B4
:0203610010D8B2
:0203620010D8B1
:0203630010D8B0
:0203640010D8AF
:0203650010D9AD
:0203660010D9AC
:0203670010D9AB
:0203680010D9AA
:0203690010DAA8
:02036A0010DAA7
:02036B0010DAA6
:02036C0010DAA5
:02036D0010DBA3
:02036E0010DBA2
:02036F0010DBA1
:0203700010DBA0
:0203710010DC9E
:0203720010DC9D
:0203730010DC9C
:0203740010DC9B
:0203750010DD99
:0203760010DD98
:0203770010DD97
:0203780010DD96
:0203790010DE94
:02037A0010DE93
:02037B0010DE92
:02037C0010DE91
:02037D0010DF8F
:02037E0010DF8E
:02037F0010DF8D
:0203800010DF8C
:0203810010E08A
:0203820010E089
:0203830010E088
:0203840010E087
:0203850010E185
:0203860010E184
:0203870010E183
:0203880010E182
:0203890010E280
:02038A0010E27F
:02038B0010E27E
:02038C0010E27D
:02038D0010E37B
:02038E0010E37A
:02038F0010E379
:0203900010E378
:0203910010E476
:0203920010E475
:0203930010E474
:0203940010E473
:0203950010E571
:0203960010E570
:0203970010E56F
:0203980010E56E
:0203990010E66C
:02039A0010E66B
:02039B0010E66A
:02039C0010E669
:02039D0010E767
:02039E0010E766
:02039F0010E765
:0203A00010E764
:0203A10010E862
:0203A20010E861
:0203A30010E860
:0203A40010E85F
:0203A50010E85E
:0203A60010E95C
:0203A70010E95B
:0203A80010E95A
:0203A90010E959
:0203AA0010EA57
:0203AB0010EA56
:0203AC0010EA55
:0203AD0010EA54
:0203AE0010EB52
:0203AF0010EB51
:0203B00010EB50
:0203B10010EB4F
:0203B20010EC4D
:0203B30010EC4C
:0203B40010EC4B
:0203B50010EC4A
:0203B60010ED48
:0203B70010ED47
:0203B80010ED46
:0203B90010ED45
:0203BA0010EE43
:0203BB0010EE42
:0203BC0010EE41
:0203BD0010EE40
:0203BE0010EF3E
:0203BF0010EF3D
:0203C00010EF3C
:0203C10010EF3B
:0203C20010F039
:0203C30010F038
:0203C40010F037
:0203C50010F036
:0203C60010F134
:0203C70010F133
:0203C80010F132
:0203C90010F131
:0203CA0010F22F
:0203CB0010F22E
:0203CC0010F22D
:0203CD0010F22C
:0203CE0010F32A
:0203CF0010F329
:0203D00010F328
:0203D10010F327
:0203D20010F425
:0203D30010F424
:0203D40010F423
:0203D50010F422
:0203D60010F520
:0203D70010F51F
:0203D80010F51E
:0203D90010F51D
:0203DA0010F61B
:0203DB0010F61A
:0203DC0010F619
:0203DD0010F618
:0203DE0010F716
:0203DF0010F715
:0203E00010F714
:0203E10010F713
:0203E20010F811
:0203E30010F810
:0203E40010F80F
:0203E50010F80E
:0203E60010F90C
:0203E70010F90B
:0203E80010F90A
:0203E90010F909
:0203EA0010FA07
:0203EB0010FA06
:0203EC0010FA05
:0203ED0010FA04
:0203EE0010FB02
:0203EF0010FB01
:0203F00010FB00
:0203F10010FBFF
:0203F20010FCFD
:0203F30010FCFC
:0203F40010FCFB
:0203F50010FCFA
:0203F60010FDF8
:0203F70010FDF7
:0203F80010FDF6
:0203F90010FDF5
:0203FA0010FEF3
:0203FB0010FEF2
:0203FC0010FEF1
:0203FD0010FEF0
:0203FE0010FFEE
:0203FF0010FFED
:0204000010FFEB
:0204010010FFEA
:020402001100E7
:020403001100E6
:020404001100E5
:020405001100E4
:020406001101E2
:020407001101E1
:020408001101E0
:020409001101DF
:02040A001102DD
:02040B001102DC
:02040C001102DB
:02040D001102DA
:02040E001103D8
:02040F001103D7
:020410001103D6
:020411001103D5
:020412001104D3
:020413001104D2
:020414001104D1
:020415001104D0
:020416001105CE
:020417001105CD
:020418001105CC
:020419001105CB
:02041A001106C9
:02041B001106C8
:02041C001106C7
:02041D001106C6
:02041E001107C4
:02041F001107C3
:020420001107C2
:020421001107C1
:020422001108BF
:020423001108BE
:020424001108BD
:020425001108BC
:020426001109BA
:020427001109B9
:020428001109B8
:020429001109B7
:02042A00110AB5
:02042B00110AB4
:02042C00110AB3
:02042D00110AB2
:02042E00110BB0
:02042F00110BAF
:02043000110BAE
:02043100110BAD
:02043200110CAB
:02043300110CAA
:02043400110CA9
:02043500110CA8
:02043600110DA6
:02043700110DA5
:02043800110DA4
:02043900110DA3
:02043A00110EA1
:02043B00110EA0
:02043C00110E9F
:02043D00110E9E
:02043E00110F9C
:02043F00110F9B
:02044000110F9A
:02044100110F99
:02044200111097
:02044300111096
:02044400111095
:02044500111094
:02044600111192
:02044700111191
:02044800111190
:0204490011118F
:02044A0011128D
:02044B0011128C
:02044C0011128B
:02044D0011128A
:02044E00111388
:02044F00111387
:02045000111386
:02045100111385
:02045200111483
:02045300111482
:02045400111481
:02045500111480
:0204560011157E
:0204570011157D
:0204580011157C
:0204590011157B
:02045A00111679
:02045B00111678
:02045C00111677
:02045D00111676
:02045E00111774
:02045F00111773
:02046000111772
:02046100111771
:0204620011186F
:0204630011186E
:0204640011186D
:0204650011186C
:0204660011196A
:02046700111969
:02046800111968
:02046900111967
:02046A00111A65
:02046B00111A64
:02046C00111A63
:02046D00111A62
:02046E00111B60
:02046F00111B5F
:02047000111B5E
:02047100111B5D
:02047200111C5B
:02047300111C5A
:02047400111C59
:02047500111C58
:02047600111D56
:02047700111D55
:02047800111D54
:02047900111D53
:02047A00111E51
:02047B00111E50
:02047C00111E4F
:02047D00111E4E
:02047E00111F4C
:02047F00111F4B
:02048000111F4A
:02048100111F49
:02048200112047
:02048300112046
:02048400112045
:02048500112044
:02048600112142
:02048700112141
:02048800112140
:0204890011213F
:02048A0011223D
:02048B0011223C
:02048C0011223B
:02048D0011223A
:02048E00112338
:02048F00112337
:02049000112336
:02049100112335
:02049200112433
:02049300112432
:02049400112431
:02049500112430
:0204960011242F
:0204970011252D
:0204980011252C
:0204990011252B
:02049A0011252A
:02049B00112628
:02049C00112627
:02049D00112626
:02049E00112625
:02049F00112723
:0204A000112722
:0204A100112721
:0204A200112720
:0204A30011281E
:0204A40011281D
:0204A50011281C
:0204A60011281B
:0204A700112919
:0204A800112918
:0204A900112917
:0204AA00112916
:0204AB00112A14
:0204AC00112A13
:0204AD00112A12
:0204AE00112A11
:0204AF00112B0F
:0204B000112B0E
:0204B100112B0D
:0204B200112B0C
:0204B300112C0A
:0204B400112C09
:0204B500112C08
:0204B600112C07
:0204B700112D05
:0204B800112D04
:0204B900112D03
:0204BA00112D02
:0204BB00112E00
:0204BC00112EFF
:0204BD00112EFE
:0204BE00112EFD
:0204BF00112FFB
:0204C000112FFA
:0204C100112FF9
:0204C200112FF8
:0204C3001130F6
:0204C4001130F5
:0204C5001130F4
:0204C6001130F3
:0204C7001131F1
:0204C8001131F0
:0204C9001131EF
:0204CA001131EE
:0204CB001132EC
:0204CC001132EB
:0204CD001132EA
:0204CE001132E9
:0204CF001133E7
:0204D0001133E6
:0204D1001133E5
:0204D2001133E4
:0204D3001134E2
:0204D4001134E1
:0204D5001134E0
:0204D6001134DF
:0204D7001135DD
:0204D8001135DC
:0204D9001135DB
:0204DA001135DA
:0204DB001136D8
:0204DC001136D7
:0204DD001136D6
:0204DE001136D5
:0204DF001137D3
:0204E0001137D2
:0204E1001137D1
:0204E2001137D0
:0204E3001138CE
:0204E4001138CD
:0204E5001138CC
:0204E6001138CB
:0204E7001139C9
:0204E8001139C8
:0204E9001139C7
:0204EA001139C6
:0204EB00113AC4
:0204EC00113AC3
:0204ED00113AC2
:0204EE00113AC1
:0204EF00113BBF
:0204F000113BBE
:0204F100113BBD
:0204F200113BBC
:0204F300113CBA
:0204F400113CB9
:0204F500113CB8
:0204F600113CB7
:0204F700113DB5
:0204F800113DB4
:0204F900113DB3
:0204FA00113DB2
:0204FB00113EB0
:0204FC00113EAF
:0204FD00113EAE
:0204FE00113EAD
:0204FF00113FAB
:02050000113FA9
:02050100113FA8
:02050200113FA7
:020503001140A5
:020504001140A4
:020505001140A3
:020506001140A2
:020507001141A0
:0205080011419F
:0205090011419E
:02050A0011419D
:02050B0011429B
:02050C0011429A
:02050D00114299
:02050E00114298
:02050F00114396
:02051000114395
:02051100114394
:02051200114393
:02051300114491
:02051400114490
:0205150011448F
:0205160011448E
:0205170011458C
:0205180011458B
:0205190011458A
:02051A00114589
:02051B00114687
:02051C00114686
:02051D00114685
:02051E00114684
:02051F00114782
:02052000114781
:02052100114780
:0205220011477F
:0205230011487D
:0205240011487C
:0205250011487B
:0205260011487A
:02052700114978
:02052800114977
:02052900114976
:02052A00114975
:02052B00114A73
:02052C00114A72
:02052D00114A71
:02052E00114A70
:02052F00114B6E
:02053000114B6D
:02053100114B6C
:02053200114B6B
:02053300114C69
:02053400114C68
:02053500114C67
:02053600114C66
:02053700114D64
:02053800114D63
:02053900114D62
:02053A00114D61
:02053B00114E5F
:02053C00114E5E
:02053D00114E5D
:02053E00114E5C
:02053F00114F5A
:02054000114F59
:02054100114F58
:02054200114F57
:02054300114F56
:02054400115054
:02054500115053
:02054600115052
:02054700115051
:0205480011514F
:0205490011514E
:02054A0011514D
:02054B0011514C
:02054C0011524A
:02054D00115249
:02054E00115248
:02054F00115247
:02055000115345
:02055100115344
:02055200115343
:02055300115342
:02055400115440
:0205550011543F
:0205560011543E
:0205570011543D
:0205580011553B
:0205590011553A
:02055A00115539
:02055B00115538
:02055C00115636
:02055D00115635
:02055E00115634
:02055F00115633
:02056000115731
:02056100115730
:0205620011572F
:0205630011572E
:0205640011582C
:0205650011582B
:0205660011582A
:02056700115829
:02056800115927
:02056900115926
:02056A00115925
:02056B00115924
:02056C00115A22
:02056D00115A21
:02056E00115A20
:02056F00115A1F
:02057000115B1D
:02057100115B1C
:02057200115B1B
:02057300115B1A
:02057400115C18
:02057500115C17
:02057600115C16
:02057700115C15
:02057800115D13
:02057900115D12
:02057A00115D11
:02057B00115D10
:02057C00115E0E
:02057D00115E0D
:02057E00115E0C
:02057F00115E0B
:02058000115F09
:02058100115F08
:02058200115F07
:02058300115F06
:02058400116004
:02058500116003
:02058600116002
:02058700116001
:020588001161FF
:020589001161FE
:02058A001161FD
:02058B001161FC
:02058C001162FA
:02058D001162F9
:02058E001162F8
:02058F001162F7
:020590001163F5
:020591001163F4
:020592001163F3
:020593001163F2
:020594001164F0
:020595001164EF
:020596001164EE
:020597001164ED
:020598001165EB
:020599001165EA
:02059A001165E9
:02059B001165E8
:02059C001166E6
:02059D001166E5
:02059E001166E4
:02059F001166E3
:0205A0001167E1
:0205A1001167E0
:0205A2001167DF
:0205A3001167DE
:0205A4001168DC
:0205A5001168DB
:0205A6001168DA
:0205A7001168D9
:0205A8001169D7
:0205A9001169D6
:0205AA001169D5
:0205AB001169D4
:0205AC00116AD2
:0205AD00116AD1
:0205AE00116AD0
:0205AF00116ACF
:0205B000116BCD
:0205B100116BCC
:0205B200116BCB
:0205B300116BCA
:0205B400116CC8
:0205B500116CC7
:0205B600116CC6
:0205B700116CC5
:0205B800116DC3
:0205B900116DC2
:0205BA00116DC1
:0205BB00116DC0
:0205BC00116EBE
:0205BD00116EBD
:0205BE00116EBC
:0205BF00116EBB
:0205C000116FB9
:0205C100116FB8
:0205C200116FB7
:0205C300116FB6
:0205C4001170B4
:0205C5001170B3
:0205C6001170B2
:0205C7001170B1
:0205C8001170B0
:0205C9001171AE
:0205CA001171AD
:0205CB001171AC
:0205CC001171AB
:0205CD001172A9
:0205CE001172A8
:0205CF001172A7
:0205D0001172A6
:0205D1001173A4
:0205D2001173A3
:0205D3001173A2
:0205D4001173A1
:0205D50011749F
:0205D60011749E
:0205D70011749D
:0205D80011749C
:0205D90011759A
:0205DA00117599
:0205DB00117598
:0205DC00117597
:0205DD00117695
:0205DE00117694
:0205DF00117693
:0205E000117692
:0205E100117790
:0205E20011778F
:0205E30011778E
:0205E40011778D
:0205E50011788B
:0205E60011788A
:0205E700117889
:0205E800117888
:0205E900117986
:0205EA00117985
:0205EB00117984
:0205EC00117983
:0205ED00117A81
:0205EE00117A80
:0205EF00117A7F
:0205F000117A7E
:0205F100117B7C
:0205F200117B7B
:0205F300117B7A
:0205F400117B79
:0205F500117C77
:0205F600117C76
:0205F700117C75
:0205F800117C74
:0205F900117D72
:0205FA00117D71
:0205FB00117D70
:0205FC00117D6F
:0205FD00117E6D
:0205FE00117E6C
:0205FF00117E6B
:02060000117E69
:02060100117F67
:02060200117F66
:02060300117F65
:02060400117F64
:02060500118062
:02060600118061
:02060700118060
:0206080011805F
:0206090011815D
:02060A0011815C
:02060B0011815B
:02060C0011815A
:02060D00118258
:02060E00118257
:02060F00118256
:02061000118255
:02061100118353
:02061200118352
:02061300118351
:02061400118350
:0206150011844E
:0206160011844D
:0206170011844C
:0206180011844B
:02061900118549
:02061A00118548
:02061B00118547
:02061C00118546
:02061D00118644
:02061E00118643
:02061F00118642
:02062000118641
:0206210011873F
:0206220011873E
:0206230011873D
:0206240011873C
:0206250011883A
:02062600118839
:02062700118838
:02062800118837
:02062900118935
:02062A00118934
:02062B00118933
:02062C00118932
:02062D00118A30
:02062E00118A2F
:02062F00118A2E
:02063000118A2D
:02063100118B2B
:02063200118B2A
:02063300118B29
:02063400118B28
:02063500118C26
:02063600118C25
:02063700118C24
:02063800118C23
:02063900118C22
:02063A00118D20
:02063B00118D1F
:02063C00118D1E
:02063D00118D1D
:02063E00118E1B
:02063F00118E1A
:02064000118E19
:02064100118E18
:02064200118F16
:02064300118F15
:02064400118F14
:02064500118F13
:02064600119011
:02064700119010
:0206480011900F
:0206490011900E
:02064A0011910C
:02064B0011910B
:02064C0011910A
:02064D00119109
:02064E00119207
:02064F00119206
:02065000119205
:02065100119204
:02065200119302
:02065300119301
:02065400119300
:020655001193FF
:020656001194FD
:020657001194FC
:020658001194FB
:020659001194FA
:02065A001195F8
:02065B001195F7
:02065C001195F6
:02065D001195F5
:02065E001196F3
:02065F001196F2
:020660001196F1
:020661001196F0
:020662001197EE
:020663001197ED
:020664001197EC
:020665001197EB
:020666001198E9
:020667001198E8
:020668001198E7
:020669001198E6
:02066A001199E4
:02066B001199E3
:02066C001199E2
:02066D001199E1
:02066E00119ADF
:02066F00119ADE
:02067000119ADD
:02067100119ADC
:02067200119BDA
:02067300119BD9
:02067400119BD8
:02067500119BD7
:02067600119CD5
:02067700119CD4
:02067800119CD3
:02067900119CD2
:02067A00119DD0
:02067B00119DCF
:02067C00119DCE
:02067D00119DCD
:02067E00119ECB
:02067F00119ECA
:02068000119EC9
:02068100119EC8
:02068200119FC6
:02068300119FC5
:02068400119FC4
:02068500119FC3
:0206860011A0C1
:0206870011A0C0
:0206880011A0BF
:0206890011A0BE
:02068A0011A1BC
:02068B0011A1BB
:02068C0011A1BA
:02068D0011A1B9
:02068E0011A2B7
:02068F0011A2B6
:0206900011A2B5
:0206910011A2B4
:0206920011A3B2
:0206930011A3B1
:0206940011A3B0
:0206950011A3AF
:0206960011A4AD
:0206970011A4AC
:0206980011A4AB
:0206990011A4AA
:02069A0011A5A8
:02069B0011A5A7
:02069C0011A5A6
:02069D0011A5A5
:02069E0011A5A4
:02069F0011A6A2
:0206A00011A6A1
:0206A10011A6A0
:0206A20011A69F
:0206A30011A79D
:0206A40011A79C
:0206A50011A79B
:0206A60011A79A
:0206A70011A898
:0206A80011A897
:0206A90011A896
:0206AA0011A895
:0206AB0011A993
:0206AC0011A992
:0206AD0011A991
:0206AE0011A990
:0206AF0011AA8E
:0206B00011AA8D
:0206B10011AA8C
:0206B20011AA8B
:0206B30011AB89
:0206B40011AB88
:0206B50011AB87
:0206B60011AB86
:0206B70011AC84
:0206B80011AC83
:0206B90011AC82
:0206BA0011AC81
:0206BB0011AD7F
:0206BC0011AD7E
:0206BD0011AD7D
:0206BE0011AD7C
:0206BF0011AE7A
:0206C00011AE79
:0206C10011AE78
:0206C20011AE77
:0206C30011AF75
:0206C40011AF74
:0206C50011AF73
:0206C60011AF72
:0206C70011B070
:0206C80011B06F
:0206C90011B06E
:0206CA0011B06D
:0206CB0011B16B
:0206CC0011B16A
:0206CD0011B169
:0206CE0011B168
:0206CF0011B266
:0206D00011B265
:0206D10011B264
:0206D20011B263
:0206D30011B361
:0206D40011B360
:0206D50011B35F
:0206D60011B35E
:0206D70011B45C
:0206D80011B45B
:0206D90011B45A
:0206DA0011B459
:0206DB0011B557
:0206DC0011B556
:0206DD0011B555
:0206DE0011B554
:0206DF0011B652
:0206E00011B651
:0206E10011B650
:0206E20011B64F
:0206E30011B74D
:0206E40011B74C
:0206E50011B74B
:0206E60011B74A
:0206E70011B848
:0206E80011B847
:0206E90011B846
:0206EA0011B845
:0206EB0011B943
:0206EC0011B942
:0206ED0011B941
:0206EE0011B940
:0206EF0011BA3E
:0206F00011BA3D
:0206F10011BA3C
:0206F20011BA3B
:0206F30011BB39
:0206F40011BB38
:0206F50011BB37
:0206F60011BB36
:0206F70011BB35
:0206F80011BC33
:0206F90011BC32
:0206FA0011BC31
:0206FB0011BC30
:0206FC0011BD2E
:0206FD0011BD2D
:0206FE0011BD2C
:0206FF0011BD2B
:0207000011BE28
:0207010011BE27
:0207020011BE26
:0207030011BE25
:0207040011BF23
:0207050011BF22
:0207060011BF21
:0207070011BF20
:0207080011C01E
:0207090011C01D
:02070A0011C01C
:02070B0011C01B
:02070C0011C119
:02070D0011C118
:02070E0011C117
:02070F0011C116
:0207100011C214
:0207110011C213
:0207120011C212
:0207130011C211
:0207140011C30F
:0207150011C30E
:0207160011C30D
:0207170011C30C
:0207180011C40A
:0207190011C409
:02071A0011C408
:02071B0011C407
:02071C0011C505
:02071D0011C504
:02071E0011C503
:02071F0011C502
:0207200011C600
:0207210011C6FF
:0207220011C6FE
:0207230011C6FD
:0207240011C7FB
:0207250011C7FA
:0207260011C7F9
:0207270011C7F8
:0207280011C8F6
:0207290011C8F5
:02072A0011C8F4
:02072B0011C8F3
:02072C0011C9F1
:02072D0011C9F0
:02072E0011C9EF
:02072F0011C9EE
:0207300011CAEC
:0207310011CAEB
:0207320011CAEA
:0207330011CAE9
:0207340011CBE7
:0207350011CBE6
:0207360011CBE5
:0207370011CBE4
:0207380011CCE2
:0207390011CCE1
:02073A0011CCE0
:02073B0011CCDF
:02073C0011CDDD
:02073D0011CDDC
:02073E0011CDDB
:02073F0011CDDA
:0207400011CED8
:0207410011CED7
:0207420011CED6
:0207430011CED5
:0207440011CFD3
:0207450011CFD2
:0207460011CFD1
:0207470011CFD0
:0207480011CFCF
:0207490011D0CD
:02074A0011D0CC
:02074B0011D0CB
:02074C0011D0CA
:02074D0011D1C8
:02074E0011D1C7
:02074F0011D1C6
:0207500011D1C5
:0207510011D2C3
:0207520011D2C2
:0207530011D2C1
:0207540011D2C0
:0207550011D3BE
:0207560011D3BD
:0207570011D3BC
:0207580011D3BB
:0207590011D4B9
:02075A0011D4B8
:02075B0011D4B7
:02075C0011D4B6
:02075D0011D5B4
:02075E0011D5B3
:02075F0011D5B2
:0207600011D5B1
:0207610011D6AF
:0207620011D6AE
:0207630011D6AD
:0207640011D6AC
:0207650011D7AA
:0207660011D7A9
:0207670011D7A8
:0207680011D7A7
:0207690011D8A5
:02076A0011D8A4
:02076B0011D8A3
:02076C0011D8A2
:02076D0011D9A0
:02076E0011D99F
:02076F0011D99E
:0207700011D99D
:0207710011DA9B
:0207720011DA9A
:0207730011DA99
:0207740011DA98
:0207750011DB96
:0207760011DB95
:0207770011DB94
:0207780011DB93
:0207790011DC91
:02077A0011DC90
:02077B0011DC8F
:02077C0011DC8E
:02077D0011DD8C
:02077E0011DD8B
:02077F0011DD8A
:0207800011DD89
:0207810011DE87
:0207820011DE86
:0207830011DE85
:0207840011DE84
:0207850011DF82
:0207860011DF81
:0207870011DF80
:0207880011DF7F
:0207890011E07D
:02078A0011E07C
:02078B0011E07B
:02078C0011E07A
:02078D0011E178
:02078E0011E177
:02078F0011E176
:0207900011E175
:0207910011E273
:0207920011E272
:0207930011E271
:0207940011E270
:0207950011E26F
:0207960011E36D
:0207970011E36C
:0207980011E36B
:0207990011E36A
:02079A0011E468
:02079B0011E467
:02079C0011E466
:02079D0011E465
:02079E0011E563
:02079F0011E562
:0207A00011E561
:0207A10011E560
:0207A20011E65E
:0207A30011E65D
:0207A40011E65C
:0207A50011E65B
:0207A60011E759
:0207A70011E758
:0207A80011E757
:0207A90011E756
:0207AA0011E854
:0207AB0011E853
:0207AC0011E852
:0207AD0011E851
:0207AE0011E94F
:0207AF0011E94E
:0207B00011E94D
:0207B10011E94C
:0207B20011EA4A
:0207B30011EA49
:0207B40011EA48
:0207B50011EA47
:0207B60011EB45
:0207B70011EB44
:0207B80011EB43
:0207B90011EB42
:0207BA0011EC40
:0207BB0011EC3F
:0207BC0011EC3E
:0207BD0011EC3D
:0207BE0011ED3B
:0207BF0011ED3A
:0207C00011ED39
:0207C10011ED38
:0207C20011EE36
:0207C30011EE35
:0207C40011EE34
:0207C50011EE33
:0207C60011EF31
:0207C70011EF30
:0207C80011EF2F
:0207C90011EF2E
:0207CA0011F02C
:0207CB0011F02B
:0207CC0011F02A
:0207CD0011F029
:0207CE0011F127
:0207CF0011F126
:0207D00011F125
:0207D10011F124
:0207D20011F222
:0207D30011F221
:0207D40011F220
:0207D50011F21F
:0207D60011F31D
:0207D70011F31C
:0207D80011F31B
:0207D90011F31A
:0207DA0011F319
:0207DB0011F417
:0207DC0011F416
:0207DD0011F415
:0207DE0011F414
:0207DF0011F512
:0207E00011F511
:0207E10011F510
:0207E20011F50F
:0207E30011F60D
:0207E40011F60C
:0207E50011F60B
:0207E60011F60A
:0207E70011F708
:0207E80011F707
:0207E90011F706
:0207EA0011F705
:0207EB0011F803
:0207EC0011F802
:0207ED0011F801
:0207EE0011F800
:0207EF0011F9FE
:0207F00011F9FD
:0207F10011F9FC
:0207F20011F9FB
:0207F30011FAF9
:0207F40011FAF8
:0207F50011FAF7
:0207F60011FAF6
:0207F70011FBF4
:0207F80011FBF3
:0207F90011FBF2
:0207FA0011FBF1
:0207FB0011FCEF
:0207FC0011FCEE
:0207FD0011FCED
:0207FE0011FCEC
:0207FF0011FDEA
:0208000011FDE8
:0208010011FDE7
:0208020011FDE6
:0208030011FEE4
:0208040011FEE3
:0208050011FEE2
:0208060011FEE1
:0208070011FFDF
:0208080011FFDE
:0208090011FFDD
:02080A0011FFDC
:02080B001200D9
:02080C001200D8
:02080D001200D7
:02080E001200D6
:02080F001201D4
:020810001201D3
:020811001201D2
:020812001201D1
:020813001202CF
:020814001202CE
:020815001202CD
:020816001202CC
:020817001203CA
:020818001203C9
:020819001203C8
:02081A001203C7
:02081B001203C6
:02081C001204C4
:02081D001204C3
:02081E001204C2
:02081F001204C1
:020820001205BF
:020821001205BE
:020822001205BD
:020823001205BC
:020824001206BA
:020825001206B9
:020826001206B8
:020827001206B7
:020828001207B5
:020829001207B4
:02082A001207B3
:02082B001207B2
:02082C001208B0
:02082D001208AF
:02082E001208AE
:02082F001208AD
:020830001209AB
:020831001209AA
:020832001209A9
:020833001209A8
:02083400120AA6
:02083500120AA5
:02083600120AA4
:02083700120AA3
:02083800120BA1
:02083900120BA0
:02083A00120B9F
:02083B00120B9E
:02083C00120C9C
:02083D00120C9B
:02083E00120C9A
:02083F00120C99
:02084000120D97
:02084100120D96
:02084200120D95
:02084300120D94
:02084400120E92
:02084500120E91
:02084600120E90
:02084700120E8F
:02084800120F8D
:02084900120F8C
:02084A00120F8B
:02084B00120F8A
:02084C00121088
:02084D00121087
:02084E00121086
:02084F00121085
:02085000121183
:02085100121182
:02085200121181
:02085300121180
:0208540012127E
:0208550012127D
:0208560012127C
:0208570012127B
:0208580012127A
:02085900121378
:02085A00121377
:02085B00121376
:02085C00121375
:02085D00121473
:02085E00121472
:02085F00121471
:02086000121470
:0208610012156E
:0208620012156D
:0208630012156C
:0208640012156B
:02086500121669
:02086600121668
:02086700121667
:02086800121666
:02086900121764
:02086A00121763
:02086B00121762
:02086C00121761
:02086D0012185F
:02086E0012185E
:02086F0012185D
:0208700012185C
:0208710012195A
:02087200121959
:02087300121958
:02087400121957
:02087500121A55
:02087600121A54
:02087700121A53
:02087800121A52
:02087900121B50
:02087A00121B4F
:02087B00121B4E
:02087C00121B4D
:02087D00121C4B
:02087E00121C4A
:02087F00121C49
:02088000121C48
:02088100121D46
:02088200121D45
:02088300121D44
:02088400121D43
:02088500121E41
:02088600121E40
:02088700121E3F
:02088800121E3E
:02088900121F3C
:02088A00121F3B
:02088B00121F3A
:02088C00121F39
:02088D00122037
:02088E00122036
:02088F00122035
:02089000122034
:02089100122033
:02089200122131
:02089300122130
:0208940012212F
:0208950012212E
:0208960012222C
:0208970012222B
:0208980012222A
:02089900122229
:02089A00122327
:02089B00122326
:02089C00122325
:02089D00122324
:02089E00122422
:02089F00122421
:0208A000122420
:0208A10012241F
:0208A20012251D
:0208A30012251C
:0208A40012251B
:0208A50012251A
:0208A600122618
:0208A700122617
:0208A800122616
:0208A900122615
:0208AA00122713
:0208AB00122712
:0208AC00122711
:0208AD00122710
:0208AE0012280E
:0208AF0012280D
:0208B00012280C
:0208B10012280B
:0208B200122909
:0208B300122908
:0208B400122907
:0208B500122906
:0208B600122A04
:0208B700122A03
:0208B800122A02
:0208B900122A01
:0208BA00122BFF
:0208BB00122BFE
:0208BC00122BFD
:0208BD00122BFC
:0208BE00122CFA
:0208BF00122CF9
:0208C000122CF8
:0208C100122CF7
:0208C200122DF5
:0208C300122DF4
:0208C400122DF3
:0208C500122DF2
:0208C600122EF0
:0208C700122EEF
:0208C800122EEE
:0208C900122EED
:0208CA00122EEC
:0208CB00122FEA
:0208CC00122FE9
:0208CD00122FE8
:0208CE00122FE7
:0208CF001230E5
:0208D0001230E4
:0208D1001230E3
:0208D2001230E2
:0208D3001231E0
:0208D4001231DF
:0208D5001231DE
:0208D6001231DD
:0208D7001232DB
:0208D8001232DA
:0208D9001232D9
:0208DA001232D8
:0208DB001233D6
:0208DC001233D5
:0208DD001233D4
:0208DE001233D3
:0208DF001234D1
:0208E0001234D0
:0208E1001234CF
:0208E2001234CE
:0208E3001235CC
:0208E4001235CB
:0208E5001235CA
:0208E6001235C9
:0208E7001236C7
:0208E8001236C6
:0208E9001236C5
:0208EA001236C4
:0208EB001237C2
:0208EC001237C1
:0208ED001237C0
:0208EE001237BF
:0208EF001238BD
:0208F0001238BC
:0208F1001238BB
:0208F2001238BA
:0208F3001239B8
:0208F4001239B7
:0208F5001239B6
:0208F6001239B5
:0208F700123AB3
:0208F800123AB2
:0208F900123AB1
:0208FA00123AB0
:0208FB00123BAE
:0208FC00123BAD
:0208FD00123BAC
:0208FE00123BAB
:0208FF00123BAA
:02090000123CA7
:02090100123CA6
:02090200123CA5
:02090300123CA4
:02090400123DA2
:02090500123DA1
:02090600123DA0
:02090700123D9F
:02090800123E9D
:02090900123E9C
:02090A00123E9B
:02090B00123E9A
:02090C00123F98
:02090D00123F97
:02090E00123F96
:02090F00123F95
:02091000124093
:02091100124092
:02091200124091
:02091300124090
:0209140012418E
:0209150012418D
:0209160012418C
:0209170012418B
:02091800124289
:02091900124288
:02091A00124287
:02091B00124286
:02091C00124384
:02091D00124383
:02091E00124382
:02091F00124381
:0209200012447F
:0209210012447E
:0209220012447D
:0209230012447C
:0209240012457A
:02092500124579
:02092600124578
:02092700124577
:02092800124675
:02092900124674
:02092A00124673
:02092B00124672
:02092C00124770
:02092D0012476F
:02092E0012476E
:02092F0012476D
:0209300012476C
:0209310012486A
:02093200124869
:02093300124868
:02093400124867
:02093500124965
:02093600124964
:02093700124963
:02093800124962
:02093900124A60
:02093A00124A5F
:02093B00124A5E
:02093C00124A5D
:02093D00124B5B
:02093E00124B5A
:02093F00124B59
:02094000124B58
:02094100124C56
:02094200124C55
:02094300124C54
:02094400124C53
:02094500124D51
:02094600124D50
:02094700124D4F
:02094800124D4E
:02094900124E4C
:02094A00124E4B
:02094B00124E4A
:02094C00124E49
:02094D00124F47
:02094E00124F46
:02094F00124F45
:02095000124F44
:02095100125042
:02095200125041
:02095300125040
:0209540012503F
:0209550012513D
:0209560012513C
:0209570012513B
:0209580012513A
:02095900125238
:02095A00125237
:02095B00125236
:02095C00125235
:02095D00125333
:02095E00125332
:02095F00125331
:02096000125330
:0209610012532F
:0209620012542D
:0209630012542C
:0209640012542B
:0209650012542A
:02096600125528
:02096700125527
:02096800125526
:02096900125525
:02096A00125623
:02096B00125622
:02096C00125621
:02096D00125620
:02096E0012571E
:02096F0012571D
:0209700012571C
:0209710012571B
:02097200125819
:02097300125818
:02097400125817
:02097500125816
:02097600125914
:02097700125913
:02097800125912
:02097900125911
:02097A00125A0F
:02097B00125A0E
:02097C00125A0D
:02097D00125A0C
:02097E00125B0A
:02097F00125B09
:02098000125B08
:02098100125B07
:02098200125C05
:02098300125C04
:02098400125C03
:02098500125C02
:02098600125D00
:02098700125DFF
:02098800125DFE
:02098900125DFD
:02098A00125EFB
:02098B00125EFA
:02098C00125EF9
:02098D00125EF8
:02098E00125EF7
:02098F00125FF5
:02099000125FF4
:02099100125FF3
:02099200125FF2
:020993001260F0
:020994001260EF
:020995001260EE
:020996001260ED
:020997001261EB
:020998001261EA
:020999001261E9
:02099A001261E8
:02099B001262E6
:02099C001262E5
:02099D001262E4
:02099E001262E3
:02099F001263E1
:0209A0001263E0
:0209A1001263DF
:0209A2001263DE
:0209A3001264DC
:0209A4001264DB
:0209A5001264DA
:0209A6001264D9
:0209A7001265D7
:0209A8001265D6
:0209A9001265D5
:0209AA001265D4
:0209AB001266D2
:0209AC001266D1
:0209AD001266D0
:0209AE001266CF
:0209AF001267CD
:0209B0001267CC
:0209B1001267CB
:0209B2001267CA
:0209B3001268C8
:0209B4001268C7
:0209B5001268C6
:0209B6001268C5
:0209B7001269C3
:0209B8001269C2
:0209B9001269C1
:0209BA001269C0
:0209BB001269BF
:0209BC00126ABD
:0209BD00126ABC
:0209BE00126ABB
:0209BF00126ABA
:0209C000126BB8
:0209C100126BB7
:0209C200126BB6
:0209C300126BB5
:0209C400126CB3
:0209C500126CB2
:0209C600126CB1
:0209C700126CB0
:0209C800126DAE
:0209C900126DAD
:0209CA00126DAC
:0209CB00126DAB
:0209CC00126EA9
:0209CD00126EA8
:0209CE00126EA7
:0209CF00126EA6
:0209D000126FA4
:0209D100126FA3
:0209D200126FA2
:0209D300126FA1
:0209D40012709F
:0209D50012709E
:0209D60012709D
:0209D70012709C
:0209D80012719A
:0209D900127199
:0209DA00127198
:0209DB00127197
:0209DC00127295
:0209DD00127294
:0209DE00127293
:0209DF00127292
:0209E000127390
:0209E10012738F
:0209E20012738E
:0209E30012738D
:0209E40012748B
:0209E50012748A
:0209E600127489
:0209E700127488
:0209E800127487
:0209E900127585
:0209EA00127584
:0209EB00127583
:0209EC00127582
:0209ED00127680
:0209EE0012767F
:0209EF0012767E
:0209F00012767D
:0209F10012777B
:0209F20012777A
:0209F300127779
:0209F400127778
:0209F500127876
:0209F600127875
:0209F700127874
:0209F800127873
:0209F900127971
:0209FA00127970
:0209FB0012796F
:0209FC0012796E
:0209FD00127A6C
:0209FE00127A6B
:0209FF00127A6A
:020A0000127A68
:020A0100127B66
:020A0200127B65
:020A0300127B64
:020A0400127B63
:020A0500127C61
:020A0600127C60
:020A0700127C5F
:020A0800127C5E
:020A0900127D5C
:020A0A00127D5B
:020A0B00127D5A
:020A0C00127D59
:020A0D00127E57
:020A0E00127E56
:020A0F00127E55
:020A1000127E54
:020A1100127E53
:020A1200127F51
:020A1300127F50
:020A1400127F4F
:020A1500127F4E
:020A160012804C
:020A170012804B
:020A180012804A
:020A1900128049
:020A1A00128147
:020A1B00128146
:020A1C00128145
:020A1D00128144
:020A1E00128242
:020A1F00128241
:020A2000128240
:020A210012823F
:020A220012833D
:020A230012833C
:020A240012833B
:020A250012833A
:020A2600128438
:020A2700128437
:020A2800128436
:020A2900128435
:020A2A00128533
:020A2B00128532
:020A2C00128531
:020A2D00128530
:020A2E0012862E
:020A2F0012862D
:020A300012862C
:020A310012862B
:020A3200128729
:020A3300128728
:020A3400128727
:020A3500128726
:020A3600128824
:020A3700128823
:020A3800128822
:020A3900128821
:020A3A00128820
:020A3B0012891E
:020A3C0012891D
:020A3D0012891C
:020A3E0012891B
:020A3F00128A19
:020A4000128A18
:020A4100128A17
:020A4200128A16
:020A4300128B14
:020A4400128B13
:020A4500128B12
:020A4600128B11
:020A4700128C0F
:020A4800128C0E
:020A4900128C0D
:020A4A00128C0C
:020A4B00128D0A
:020A4C00128D09
:020A4D00128D08
:020A4E00128D07
:020A4F00128E05
:020A5000128E04
:020A5100128E03
:020A5200128E02
:020A5300128F00
:020A5400128FFF
:020A5500128FFE
:020A5600128FFD
:020A57001290FB
:020A58001290FA
:020A59001290F9
:020A5A001290F8
:020A5B001291F6
:020A5C001291F5
:020A5D001291F4
:020A5E001291F3
:020A5F001292F1
:020A60001292F0
:020A61001292EF
:020A62001292EE
:020A63001292ED
:020A64001293EB
:020A65001293EA
:020A66001293E9
:020A67001293E8
:020A68001294E6
:020A69001294E5
:020A6A001294E4
:020A6B001294E3
:020A6C001295E1
:020A6D001295E0
:020A6E001295DF
:020A6F001295DE
:020A70001296DC
:020A71001296DB
:020A72001296DA
:020A73001296D9
:020A74001297D7
:020A75001297D6
:020A76001297D5
:020A77001297D4
:020A78001298D2
:020A79001298D1
:020A7A001298D0
:020A7B001298CF
:020A7C001299CD
:020A7D001299CC
:020A7E001299CB
:020A7F001299CA
:020A8000129AC8
:020A8100129AC7
:020A8200129AC6
:020A8300129AC5
:020A8400129BC3
:020A8500129BC2
:020A8600129BC1
:020A8700129BC0
:020A8800129BBF
:020A8900129CBD
:020A8A00129CBC
:020A8B00129CBB
:020A8C00129CBA
:020A8D00129DB8
:020A8E00129DB7
:020A8F00129DB6
:020A9000129DB5
:020A9100129EB3
:020A9200129EB2
:020A9300129EB1
:020A9400129EB0
:020A9500129FAE
:020A9600129FAD
:020A9700129FAC
:020A9800129FAB
:020A990012A0A9
:020A9A0012A0A8
:020A9B0012A0A7
:020A9C0012A0A6
:020A9D0012A1A4
:020A9E0012A1A3
:020A9F0012A1A2
:020AA00012A1A1
:020AA10012A29F
:020AA20012A29E
:020AA30012A29D
:020AA40012A29C
:020AA50012A39A
:020AA60012A399
:020AA70012A398
:020AA80012A397
:020AA90012A495
:020AAA0012A494
:020AAB0012A493
:020AAC0012A492
:020AAD0012A491
:020AAE0012A58F
:020AAF0012A58E
:020AB00012A58D
:020AB10012A58C
:020AB20012A68A
:020AB30012A689
:020AB40012A688
:020AB50012A687
:020AB60012A785
:020AB70012A784
:020AB80012A783
:020AB90012A782
:020ABA0012A880
:020ABB0012A87F
:020ABC0012A87E
:020ABD0012A87D
:020ABE0012A97B
:020ABF0012A97A
:020AC00012A979
:020AC10012A978
:020AC20012AA76
:020AC30012AA75
:020AC40012AA74
:020AC50012AA73
:020AC60012AB71
:020AC70012AB70
:020AC80012AB6F
:020AC90012AB6E
:020ACA0012AC6C
:020ACB0012AC6B
:020ACC0012AC6A
:020ACD0012AC69
:020ACE0012AD67
:020ACF0012AD66
:020AD00012AD65
:020AD10012AD64
:020AD20012AD63
:020AD30012AE61
:020AD40012AE60
:020AD50012AE5F
:020AD60012AE5E
:020AD70012AF5C
:020AD80012AF5B
:020AD90012AF5A
:020ADA0012AF59
:020ADB0012B057
:020ADC0012B056
:020ADD0012B055
:020ADE0012B054
:020ADF0012B152
:020AE00012B151
:020AE10012B150
:020AE20012B14F
:020AE30012B24D
:020AE40012B24C
:020AE50012B24B
:020AE60012B24A
:020AE70012B348
:020AE80012B347
:020AE90012B346
:020AEA0012B345
:020AEB0012B443
:020AEC0012B442
:020AED0012B441
:020AEE0012B440
:020AEF0012B53E
:020AF00012B53D
:020AF10012B53C
:020AF20012B53B
:020AF30012B53A
:020AF40012B638
:020AF50012B637
:020AF60012B636
:020AF70012B635
:020AF80012B733
:020AF90012B732
:020AFA0012B731
:020AFB0012B730
:020AFC0012B82E
:020AFD0012B82D
:020AFE0012B82C
:020AFF0012B82B
:020B000012B928
:020B010012B927
:020B020012B926
:020B030012B925
:020B040012BA23
:020B050012BA22
:020B060012BA21
:020B070012BA20
:020B080012BB1E
:020B090012BB1D
:020B0A0012BB1C
:020B0B0012BB1B
:020B0C0012BC19
:020B0D0012BC18
:020B0E0012BC17
:020B0F0012BC16
:020B100012BD14
:020B110012BD13
:020B120012BD12
:020B130012BD11
:020B140012BE0F
:020B150012BE0E
:020B160012BE0D
:020B170012BE0C
:020B180012BE0B
:020B190012BF09
:020B1A0012BF08
:020B1B0012BF07
:020B1C0012BF06
:020B1D0012C004
:020B1E0012C003
:020B1F0012C002
:020B200012C001
:020B210012C1FF
:020B220012C1FE
:020B230012C1FD
:020B240012C1FC
:020B250012C2FA
:020B260012C2F9
:020B270012C2F8
:020B280012C2F7
:020B290012C3F5
:020B2A0012C3F4
:020B2B0012C3F3
:020B2C0012C3F2
:020B2D0012C4F0
:020B2E0012C4EF
:020B2F0012C4EE
:020B300012C4ED
:020B310012C5EB
:020B320012C5EA
:020B330012C5E9
:020B340012C5E8
:020B350012C6E6
:020B360012C6E5
:020B370012C6E4
:020B380012C6E3
:020B390012C6E2
:020B3A0012C7E0
:020B3B0012C7DF
:020B3C0012C7DE
:020B3D0012C7DD
:020B3E0012C8DB
:020B3F0012C8DA
:020B400012C8D9
:020B410012C8D8
:020B420012C9D6
:020B430012C9D5
:020B440012C9D4
:020B450012C9D3
:020B460012CAD1
:020B470012CAD0
:020B480012CACF
:020B490012CACE
:020B4A0012CBCC
:020B4B0012CBCB
:020B4C0012CBCA
:020B4D0012CBC9
:020B4E0012CCC7
:020B4F0012CCC6
:020B500012CCC5
:020B510012CCC4
:020B520012CDC2
:020B530012CDC1
:020B540012CDC0
:020B550012CDBF
:020B560012CEBD
:020B570012CEBC
:020B580012CEBB
:020B590012CEBA
:020B5A0012CEB9
:020B5B0012CFB7
:020B5C0012CFB6
:020B5D0012CFB5
:020B5E0012CFB4
:020B5F0012D0B2
:020B600012D0B1
:020B610012D0B0
:020B620012D0AF
:020B630012D1AD
:020B640012D1AC
:020B650012D1AB
:020B660012D1AA
:020B670012D2A8
:020B680012D2A7
:020B690012D2A6
:020B6A0012D2A5
:020B6B0012D3A3
:020B6C0012D3A2
:020B6D0012D3A1
:020B6E0012D3A0
:020B6F0012D49E
:020B700012D49D
:020B710012D49C
:020B720012D49B
:020B730012D599
:020B740012D598
:020B750012D597
:020B760012D596
:020B770012D694
:020B780012D693
:020B790012D692
:020B7A0012D691
:020B7B0012D690
:020B7C0012D78E
:020B7D0012D78D
:020B7E0012D78C
:020B7F0012D78B
:020B800012D889
:020B810012D888
:020B820012D887
:020B830012D886
:020B840012D984
:020B850012D983
:020B860012D982
:020B870012D981
:020B880012DA7F
:020B890012DA7E
:020B8A0012DA7D
:020B8B0012DA7C
:020B8C0012DB7A
:020B8D0012DB79
:020B8E0012DB78
:020B8F0012DB77
:020B900012DC75
:020B910012DC74
:020B920012DC73
:020B930012DC72
:020B940012DD70
:020B950012DD6F
:020B960012DD6E
:020B970012DD6D
:020B980012DD6C
:020B990012DE6A
:020B9A0012DE69
:020B9B0012DE68
:020B9C0012DE67
:020B9D0012DF65
:020B9E0012DF64
:020B9F0012DF63
:020BA00012DF62
:020BA10012E060
:020BA20012E05F
:020BA30012E05E
:020BA40012E05D
:020BA50012E15B
:020BA60012E15A
:020BA70012E159
:020BA80012E158
:020BA90012E256
:020BAA0012E255
:020BAB0012E254
:020BAC0012E253
:020BAD0012E351
:020BAE0012E350
:020BAF0012E34F
:020BB00012E34E
:020BB10012E44C
:020BB20012E44B
:020BB30012E44A
:020BB40012E449
:020BB50012E547
:020BB60012E546
:020BB70012E545
:020BB80012E544
:020BB90012E543
:020BBA0012E641
:020BBB0012E640
:020BBC0012E63F
:020BBD0012E63E
:020BBE0012E73C
:020BBF0012E73B
:020BC00012E73A
:020BC10012E739
:020BC20012E837
:020BC30012E836
:020BC40012E835
:020BC50012E834
:020BC60012E932
:020BC70012E931
:020BC80012E930
:020BC90012E92F
:020BCA0012EA2D
:020BCB0012EA2C
:020BCC0012EA2B
:020BCD0012EA2A
:020BCE0012EB28
:020BCF0012EB27
:020BD00012EB26
:020BD10012EB25
:020BD20012EC23
:020BD30012EC22
:020BD40012EC21
:020BD50012EC20
:020BD60012EC1F
:020BD70012ED1D
:020BD80012ED1C
:020BD90012ED1B
:020BDA0012ED1A
:020BDB0012EE18
:020BDC0012EE17
:020BDD0012EE16
:020BDE0012EE15
:020BDF0012EF13
:020BE00012EF12
:020BE10012EF11
:020BE20012EF10
:020BE30012F00E
:020BE40012F00D
:020BE50012F00C
:020BE60012F00B
:020BE70012F109
:020BE80012F108
:020BE90012F107
:020BEA0012F106
:020BEB0012F204
:020BEC0012F203
:020BED0012F202
:020BEE0012F201
:020BEF0012F3FF
:020BF00012F3FE
:020BF10012F3FD
:020BF20012F3FC
:020BF30012F3FB
:020BF40012F4F9
:020BF50012F4F8
:020BF60012F4F7
:020BF70012F4F6
:020BF80012F5F4
:020BF90012F5F3
:020BFA0012F5F2
:020BFB0012F5F1
:020BFC0012F6EF
:020BFD0012F6EE
:020BFE0012F6ED
:020BFF0012F6EC
:020C000012F7E9
:020C010012F7E8
:020C020012F7E7
:020C030012F7E6
:020C040012F8E4
:020C050012F8E3
:020C060012F8E2
:020C070012F8E1
:020C080012F9DF
:020C090012F9DE
:020C0A0012F9DD
:020C0B0012F9DC
:020C0C0012FADA
:020C0D0012FAD9
:020C0E0012FAD8
:020C0F0012FAD7
:020C100012FAD6
:020C110012FBD4
:020C120012FBD3
:020C130012FBD2
:020C140012FBD1
:020C150012FCCF
:020C160012FCCE
:020C170012FCCD
:020C180012FCCC
:020C190012FDCA
:020C1A0012FDC9
:020C1B0012FDC8
:020C1C0012FDC7
:020C1D0012FEC5
:020C1E0012FEC4
:020C1F0012FEC3
:020C200012FEC2
:020C210012FFC0
:020C220012FFBF
:020C230012FFBE
:020C240012FFBD
:020C25001300BA
:020C26001300B9
:020C27001300B8
:020C28001300B7
:020C29001301B5
:020C2A001301B4
:020C2B001301B3
:020C2C001301B2
:020C2D001301B1
:020C2E001302AF
:020C2F001302AE
:020C30001302AD
:020C31001302AC
:020C32001303AA
:020C33001303A9
:020C34001303A8
:020C35001303A7
:020C36001304A5
:020C37001304A4
:020C38001304A3
:020C39001304A2
:020C3A001305A0
:020C3B0013059F
:020C3C0013059E
:020C3D0013059D
:020C3E0013069B
:020C3F0013069A
:020C4000130699
:020C4100130698
:020C4200130796
:020C4300130795
:020C4400130794
:020C4500130793
:020C4600130891
:020C4700130890
:020C480013088F
:020C490013088E
:020C4A0013088D
:020C4B0013098B
:020C4C0013098A
:020C4D00130989
:020C4E00130988
:020C4F00130A86
:020C5000130A85
:020C5100130A84
:020C5200130A83
:020C5300130B81
:020C5400130B80
:020C5500130B7F
:020C5600130B7E
:020C5700130C7C
:020C5800130C7B
:020C5900130C7A
:020C5A00130C79
:020C5B00130D77
:020C5C00130D76
:020C5D00130D75
:020C5E00130D74
:020C5F00130E72
:020C6000130E71
:020C6100130E70
:020C6200130E6F
:020C6300130E6E
:020C6400130F6C
:020C6500130F6B
:020C6600130F6A
:020C6700130F69
:020C6800131067
:020C6900131066
:020C6A00131065
:020C6B00131064
:020C6C00131162
:020C6D00131161
:020C6E00131160
:020C6F0013115F
:020C700013125D
:020C710013125C
:020C720013125B
:020C730013125A
:020C7400131358
:020C7500131357
:020C7600131356
:020C7700131355
:020C7800131453
:020C7900131452
:020C7A00131451
:020C7B00131450
:020C7C0013154E
:020C7D0013154D
:020C7E0013154C
:020C7F0013154B
:020C800013154A
:020C8100131648
:020C8200131647
:020C8300131646
:020C8400131645
:020C8500131743
:020C8600131742
:020C8700131741
:020C8800131740
:020C890013183E
:020C8A0013183D
:020C8B0013183C
:020C8C0013183B
:020C8D00131939
:020C8E00131938
:020C8F00131937
:020C9000131936
:020C9100131A34
:020C9200131A33
:020C9300131A32
:020C9400131A31
:020C9500131B2F
:020C9600131B2E
:020C9700131B2D
:020C9800131B2C
:020C9900131B2B
:020C9A00131C29
:020C9B00131C28
:020C9C00131C27
:020C9D00131C26
:020C9E00131D24
:020C9F00131D23
:020CA000131D22
:020CA100131D21
:020CA200131E1F
:020CA300131E1E
:020CA400131E1D
:020CA500131E1C
:020CA600131F1A
:020CA700131F19
:020CA800131F18
:020CA900131F17
:020CAA00132015
:020CAB00132014
:020CAC00132013
:020CAD00132012
:020CAE00132110
:020CAF0013210F
:020CB00013210E
:020CB10013210D
:020CB20013220B
:020CB30013220A
:020CB400132209
:020CB500132208
:020CB600132207
:020CB700132305
:020CB800132304
:020CB900132303
:020CBA00132302
:020CBB00132400
:020CBC001324FF
:020CBD001324FE
:020CBE001324FD
:020CBF001325FB
:020CC0001325FA
:020CC1001325F9
:020CC2001325F8
:020CC3001326F6
:020CC4001326F5
:020CC5001326F4
:020CC6001326F3
:020CC7001327F1
:020CC8001327F0
:020CC9001327EF
:020CCA001327EE
:020CCB001328EC
:020CCC001328EB
:020CCD001328EA
:020CCE001328E9
:020CCF001328E8
:020CD0001329E6
:020CD1001329E5
:020CD2001329E4
:020CD3001329E3
:020CD400132AE1
:020CD500132AE0
:020CD600132ADF
:020CD700132ADE
:020CD800132BDC
:020CD900132BDB
:020CDA00132BDA
:020CDB00132BD9
:020CDC00132CD7
:020CDD00132CD6
:020CDE00132CD5
:020CDF00132CD4
:020CE000132DD2
:020CE100132DD1
:020CE200132DD0
:020CE300132DCF
:020CE400132ECD
:020CE500132ECC
:020CE600132ECB
:020CE700132ECA
:020CE800132EC9
:020CE900132FC7
:020CEA00132FC6
:020CEB00132FC5
:020CEC00132FC4
:020CED001330C2
:020CEE001330C1
:020CEF001330C0
:020CF0001330BF
:020CF1001331BD
:020CF2001331BC
:020CF3001331BB
:020CF4001331BA
:020CF5001332B8
:020CF6001332B7
:020CF7001332B6
:020CF8001332B5
:020CF9001333B3
:020CFA001333B2
:020CFB001333B1
:020CFC001333B0
:020CFD001334AE
:020CFE001334AD
:020CFF001334AC
:020D00001334AA
:020D01001334A9
:020D02001335A7
:020D03001335A6
:020D04001335A5
:020D05001335A4
:020D06001336A2
:020D07001336A1
:020D08001336A0
:020D090013369F
:020D0A0013379D
:020D0B0013379C
:020D0C0013379B
:020D0D0013379A
:020D0E00133898
:020D0F00133897
:020D1000133896
:020D1100133895
:020D1200133993
:020D1300133992
:020D1400133991
:020D1500133990
:020D1600133A8E
:020D1700133A8D
:020D1800133A8C
:020D1900133A8B
:020D1A00133A8A
:020D1B00133B88
:020D1C00133B87
:020D1D00133B86
:020D1E00133B85
:020D1F00133C83
:020D2000133C82
:020D2100133C81
:020D2200133C80
:020D2300133D7E
:020D2400133D7D
:020D2500133D7C
:020D2600133D7B
:020D2700133E79
:020D2800133E78
:020D2900133E77
:020D2A00133E76
:020D2B00133F74
:020D2C00133F73
:020D2D00133F72
:020D2E00133F71
:020D2F0013406F
:020D300013406E
:020D310013406D
:020D320013406C
:020D330013406B
:020D3400134169
:020D3500134168
:020D3600134167
:020D3700134166
:020D3800134264
:020D3900134263
:020D3A00134262
:020D3B00134261
:020D3C0013435F
:020D3D0013435E
:020D3E0013435D
:020D3F0013435C
:020D400013445A
:020D4100134459
:020D4200134458
:020D4300134457
:020D4400134555
:020D4500134554
:020D4600134553
:020D4700134552
:020D4800134650
:020D490013464F
:020D4A0013464E
:020D4B0013464D
:020D4C0013464C
:020D4D0013474A
:020D4E00134749
:020D4F00134748
:020D5000134747
:020D5100134845
:020D5200134844
:020D5300134843
:020D5400134842
:020D5500134940
:020D560013493F
:020D570013493E
:020D580013493D
:020D5900134A3B
:020D5A00134A3A
:020D5B00134A39
:020D5C00134A38
:020D5D00134B36
:020D5E00134B35
:020D5F00134B34
:020D6000134B33
:020D6100134B32
:020D6200134C30
:020D6300134C2F
:020D6400134C2E
:020D6500134C2D
:020D6600134D2B
:020D6700134D2A
:020D6800134D29
:020D6900134D28
:020D6A00134E26
:020D6B00134E25
:020D6C00134E24
:020D6D00134E23
:020D6E00134F21
:020D6F00134F20
:020D7000134F1F
:020D7100134F1E
:020D720013501C
:020D730013501B
:020D740013501A
:020D7500135019
:020D7600135117
:020D7700135116
:020D7800135115
:020D7900135114
:020D7A00135113
:020D7B00135211
:020D7C00135210
:020D7D0013520F
:020D7E0013520E
:020D7F0013530C
:020D800013530B
:020D810013530A
:020D8200135309
:020D8300135407
:020D8400135406
:020D8500135405
:020D8600135404
:020D8700135502
:020D8800135501
:020D8900135500
:020D8A001355FF
:020D8B001356FD
:020D8C001356FC
:020D8D001356FB
:020D8E001356FA
:020D8F001356F9
:020D90001357F7
:020D91001357F6
:020D92001357F5
:020D93001357F4
:020D94001358F2
:020D95001358F1
:020D96001358F0
:020D97001358EF
:020D98001359ED
:020D99001359EC
:020D9A001359EB
:020D9B001359EA
:020D9C00135AE8
:020D9D00135AE7
:020D9E00135AE6
:020D9F00135AE5
:020DA000135BE3
:020DA100135BE2
:020DA200135BE1
:020DA300135BE0
:020DA400135CDE
:020DA500135CDD
:020DA600135CDC
:020DA700135CDB
:020DA800135CDA
:020DA900135DD8
:020DAA00135DD7
:020DAB00135DD6
:020DAC00135DD5
:020DAD00135ED3
:020DAE00135ED2
:020DAF00135ED1
:020DB000135ED0
:020DB100135FCE
:020DB200135FCD
:020DB300135FCC
:020DB400135FCB
:020DB5001360C9
:020DB6001360C8
:020DB7001360C7
:020DB8001360C6
:020DB9001361C4
:020DBA001361C3
:020DBB001361C2
:020DBC001361C1
:020DBD001361C0
:020DBE001362BE
:020DBF001362BD
:020DC0001362BC
:020DC1001362BB
:020DC2001363B9
:020DC3001363B8
:020DC4001363B7
:020DC5001363B6
:020DC6001364B4
:020DC7001364B3
:020DC8001364B2
:020DC9001364B1
:020DCA001365AF
:020DCB001365AE
:020DCC001365AD
:020DCD001365AC
:020DCE001366AA
:020DCF001366A9
:020DD0001366A8
:020DD1001366A7
:020DD2001367A5
:020DD3001367A4
:020DD4001367A3
:020DD5001367A2
:020DD6001367A1
:020DD70013689F
:020DD80013689E
:020DD90013689D
:020DDA0013689C
:020DDB0013699A
:020DDC00136999
:020DDD00136998
:020DDE00136997
:020DDF00136A95
:020DE000136A94
:020DE100136A93
:020DE200136A92
:020DE300136B90
:020DE400136B8F
:020DE500136B8E
:020DE600136B8D
:020DE700136C8B
:020DE800136C8A
:020DE900136C89
:020DEA00136C88
:020DEB00136C87
:020DEC00136D85
:020DED00136D84
:020DEE00136D83
:020DEF00136D82
:020DF000136E80
:020DF100136E7F
:020DF200136E7E
:020DF300136E7D
:020DF400136F7B
:020DF500136F7A
:020DF600136F79
:020DF700136F78
:020DF800137076
:020DF900137075
:020DFA00137074
:020DFB00137073
:020DFC00137171
:020DFD00137170
:020DFE0013716F
:020DFF0013716E
:020E000013716C
:020E010013726A
:020E0200137269
:020E0300137268
:020E0400137267
:020E0500137365
:020E0600137364
:020E0700137363
:020E0800137362
:020E0900137460
:020E0A0013745F
:020E0B0013745E
:020E0C0013745D
:020E0D0013755B
:020E0E0013755A
:020E0F00137559
:020E1000137558
:020E1100137656
:020E1200137655
:020E1300137654
:020E1400137653
:020E1500137652
:020E1600137750
:020E170013774F
:020E180013774E
:020E190013774D
:020E1A0013784B
:020E1B0013784A
:020E1C00137849
:020E1D00137848
:020E1E00137946
:020E1F00137945
:020E2000137944
:020E2100137943
:020E2200137A41
:020E2300137A40
:020E2400137A3F
:020E2500137A3E
:020E2600137B3C
:020E2700137B3B
:020E2800137B3A
:020E2900137B39
:020E2A00137B38
:020E2B00137C36
:020E2C00137C35
:020E2D00137C34
:020E2E00137C33
:020E2F00137D31
:020E3000137D30
:020E3100137D2F
:020E3200137D2E
:020E3300137E2C
:020E3400137E2B
:020E3500137E2A
:020E3600137E29
:020E3700137F27
:020E3800137F26
:020E3900137F25
:020E3A00137F24
:020E3B00138022
:020E3C00138021
:020E3D00138020
:020E3E0013801F
:020E3F0013801E
:020E400013811C
:020E410013811B
:020E420013811A
:020E4300138119
:020E4400138217
:020E4500138216
:020E4600138215
:020E4700138214
:020E4800138312
:020E4900138311
:020E4A00138310
:020E4B0013830F
:020E4C0013840D
:020E4D0013840C
:020E4E0013840B
:020E4F0013840A
:020E5000138508
:020E5100138507
:020E5200138506
:020E5300138505
:020E5400138504
:020E5500138602
:020E5600138601
:020E5700138600
:020E58001386FF
:020E59001387FD
:020E5A001387FC
:020E5B001387FB
:020E5C001387FA
:020E5D001388F8
:020E5E001388F7
:020E5F001388F6
:020E60001388F5
:020E61001389F3
:020E62001389F2
:020E63001389F1
:020E64001389F0
:020E6500138AEE
:020E6600138AED
:020E6700138AEC
:020E6800138AEB
:020E6900138AEA
:020E6A00138BE8
:020E6B00138BE7
:020E6C00138BE6
:020E6D00138BE5
:020E6E00138CE3
:020E6F00138CE2
:020E7000138CE1
:020E7100138CE0
:020E7200138DDE
:020E7300138DDD
:020E7400138DDC
:020E7500138DDB
:020E7600138ED9
:020E7700138ED8
:020E7800138ED7
:020E7900138ED6
:020E7A00138FD4
:020E7B00138FD3
:020E7C00138FD2
:020E7D00138FD1
:020E7E00138FD0
:020E7F001390CE
:020E80001390CD
:020E81001390CC
:020E82001390CB
:020E83001391C9
:020E84001391C8
:020E85001391C7
:020E86001391C6
:020E87001392C4
:020E88001392C3
:020E89001392C2
:020E8A001392C1
:020E8B001393BF
:020E8C001393BE
:020E8D001393BD
:020E8E001393BC
:020E8F001394BA
:020E90001394B9
:020E91001394B8
:020E92001394B7
:020E93001394B6
:020E94001395B4
:020E95001395B3
:020E96001395B2
:020E97001395B1
:020E98001396AF
:020E99001396AE
:020E9A001396AD
:020E9B001396AC
:020E9C001397AA
:020E9D001397A9
:020E9E001397A8
:020E9F001397A7
:020EA0001398A5
:020EA1001398A4
:020EA2001398A3
:020EA3001398A2
:020EA4001398A1
:020EA50013999F
:020EA60013999E
:020EA70013999D
:020EA80013999C
:020EA900139A9A
:020EAA00139A99
:020EAB00139A98
:020EAC00139A97
:020EAD00139B95
:020EAE00139B94
:020EAF00139B93
:020EB000139B92
:020EB100139C90
:020EB200139C8F
:020EB300139C8E
:020EB400139C8D
:020EB500139D8B
:020EB600139D8A
:020EB700139D89
:020EB800139D88
:020EB900139D87
:020EBA00139E85
:020EBB00139E84
:020EBC00139E83
:020EBD00139E82
:020EBE00139F80
:020EBF00139F7F
:020EC000139F7E
:020EC100139F7D
:020EC20013A07B
:020EC30013A07A
:020EC40013A079
:020EC50013A078
:020EC60013A176
:020EC70013A175
:020EC80013A174
:020EC90013A173
:020ECA0013A271
:020ECB0013A270
:020ECC0013A26F
:020ECD0013A26E
:020ECE0013A26D
:020ECF0013A36B
:020ED00013A36A
:020ED10013A369
:020ED20013A368
:020ED30013A466
:020ED40013A465
:020ED50013A464
:020ED60013A463
:020ED70013A561
:020ED80013A560
:020ED90013A55F
:020EDA0013A55E
:020EDB0013A65C
:020EDC0013A65B
:020EDD0013A65A
:020EDE0013A659
:020EDF0013A658
:020EE00013A756
:020EE10013A755
:020EE20013A754
:020EE30013A753
:020EE40013A851
:020EE50013A850
:020EE60013A84F
:020EE70013A84E
:020EE80013A94C
:020EE90013A94B
:020EEA0013A94A
:020EEB0013A949
:020EEC0013AA47
:020EED0013AA46
:020EEE0013AA45
:020EEF0013AA44
:020EF00013AB42
:020EF10013AB41
:020EF20013AB40
:020EF30013AB3F
:020EF40013AB3E
:020EF50013AC3C
:020EF60013AC3B
:020EF70013AC3A
:020EF80013AC39
:020EF90013AD37
:020EFA0013AD36
:020EFB0013AD35
:020EFC0013AD34
:020EFD0013AE32
:020EFE0013AE31
:020EFF0013AE30
:020F000013AE2E
:020F010013AF2C
:020F020013AF2B
:020F030013AF2A
:020F040013AF29
:020F050013AF28
:020F060013B026
:020F070013B025
:020F080013B024
:020F090013B023
:020F0A0013B121
:020F0B0013B120
:020F0C0013B11F
:020F0D0013B11E
:020F0E0013B21C
:020F0F0013B21B
:020F100013B21A
:020F110013B219
:020F120013B317
:020F130013B316
:020F140013B315
:020F150013B314
:020F160013B412
:020F170013B411
:020F180013B410
:020F190013B40F
:020F1A0013B40E
:020F1B0013B50C
:020F1C0013B50B
:020F1D0013B50A
:020F1E0013B509
:020F1F0013B607
:020F200013B606
:020F210013B605
:020F220013B604
:020F230013B702
:020F240013B701
:020F250013B700
:020F260013B7FF
:020F270013B8FD
:020F280013B8FC
:020F290013B8FB
:020F2A0013B8FA
:020F2B0013B8F9
:020F2C0013B9F7
:020F2D0013B9F6
:020F2E0013B9F5
:020F2F0013B9F4
:020F300013BAF2
:020F310013BAF1
:020F320013BAF0
:020F330013BAEF
:020F340013BBED
:020F350013BBEC
:020F360013BBEB
:020F370013BBEA
:020F380013BCE8
:020F390013BCE7
:020F3A0013BCE6
:020F3B0013BCE5
:020F3C0013BCE4
:020F3D0013BDE2
:020F3E0013BDE1
:020F3F0013BDE0
:020F400013BDDF
:020F410013BEDD
:020F420013BEDC
:020F430013BEDB
:020F440013BEDA
:020F450013BFD8
:020F460013BFD7
:020F470013BFD6
:020F480013BFD5
:020F490013C0D3
:020F4A0013C0D2
:020F4B0013C0D1
:020F4C0013C0D0
:020F4D0013C1CE
:020F4E0013C1CD
:020F4F0013C1CC
:020F500013C1CB
:020F510013C1CA
:020F520013C2C8
:020F530013C2C7
:020F540013C2C6
:020F550013C2C5
:020F560013C3C3
:020F570013C3C2
:020F580013C3C1
:020F590013C3C0
:020F5A0013C4BE
:020F5B0013C4BD
:020F5C0013C4BC
:020F5D0013C4BB
:020F5E0013C5B9
:020F5F0013C5B8
:020F600013C5B7
:020F610013C5B6
:020F620013C5B5
:020F630013C6B3
:020F640013C6B2
:020F650013C6B1
:020F660013C6B0
:020F670013C7AE
:020F680013C7AD
:020F690013C7AC
:020F6A0013C7AB
:020F6B0013C8A9
:020F6C0013C8A8
:020F6D0013C8A7
:020F6E0013C8A6
:020F6F0013C9A4
:020F700013C9A3
:020F710013C9A2
:020F720013C9A1
:020F730013C9A0
:020F740013CA9E
:020F750013CA9D
:020F760013CA9C
:020F770013CA9B
:020F780013CB99
:020F790013CB98
:020F7A0013CB97
:020F7B0013CB96
:020F7C0013CC94
:020F7D0013CC93
:020F7E0013CC92
:020F7F0013CC91
:020F800013CD8F
:020F810013CD8E
:020F820013CD8D
:020F830013CD8C
:020F840013CD8B
:020F850013CE89
:020F860013CE88
:020F870013CE87
:020F880013CE86
:020F890013CF84
:020F8A0013CF83
:020F8B0013CF82
:020F8C0013CF81
:020F8D0013D07F
:020F8E0013D07E
:020F8F0013D07D
:020F900013D07C
:020F910013D17A
:020F920013D179
:020F930013D178
:020F940013D177
:020F950013D275
:020F960013D274
:020F970013D273
:020F980013D272
:020F990013D271
:020F9A0013D36F
:020F9B0013D36E
:020F9C0013D36D
:020F9D0013D36C
:020F9E0013D46A
:020F9F0013D469
